:100000000C945C000C9479000C9479000C947900A9
:100010000C9479000C9479000C9479000C9479007C
:100020000C9479000C9479000C9479000C9479006C
:100030000C9479000C9479000C9479000C9479005C
:100040000C942E010C9479000C9479000C94790096
:100050000C9479000C9479000C9479000C9479003C
:100060000C9479000C947900000000070002010054
:100070000003040600000000000000000102040864
:100080001020408001020408102001020408102002
:10009000040404040404040402020202020203032E
:1000A0000303030300000000250028002B000000CC
:1000B0000000240027002A0011241FBECFEFD8E043
:1000C000DEBFCDBF11E0A0E0B1E0EAE1F4E002C0A4
:1000D00005900D92A230B107D9F721E0A2E0B1E07E
:1000E00001C01D92AB30B207E1F70E94FE010C94F3
:1000F0000B020C94000061E0809100010C94C3009D
:10010000CF93DF93C0E0D1E061E088810E94FF00DF
:1001100068EC70E080E090E00E949D0160E08881E2
:100120000E94FF0068EC70E080E090E0DF91CF91EA
:100130000C949D01833081F028F4813099F0823055
:10014000A1F008958630A9F08730B9F08430D1F459
:10015000809180008F7D03C0809180008F77809395
:100160008000089584B58F7702C084B58F7D84BDEB
:1001700008958091B0008F7703C08091B0008F7D8B
:100180008093B0000895CF93DF9390E0FC01E45892
:10019000FF4F2491FC01E057FF4F8491882361F1C8
:1001A00090E0880F991FFC01E255FF4FC591D49153
:1001B000FC01EC55FF4FA591B491611109C09FB7A7
:1001C000F8948881209582238883EC912E230BC09C
:1001D000623061F49FB7F8948881322F3095832381
:1001E0008883EC912E2B2C939FBF06C08FB7F89479
:1001F000E8812E2B28838FBFDF91CF9108951F9325
:10020000CF93DF93282F30E0F901E859FF4F849115
:10021000F901E458FF4FD491F901E057FF4FC49121
:10022000CC23C1F0162F81110E949A00EC2FF0E030
:10023000EE0FFF1FEC55FF4FA591B4919FB7F894B7
:10024000111104C08C91D095D82302C0EC91DE2B03
:10025000DC939FBFDF91CF911F9108951F920F9262
:100260000FB60F9211242F933F938F939F93AF93C9
:10027000BF938091030190910401A0910501B09179
:1002800006013091020123E0230F2D3720F401965F
:10029000A11DB11D05C026E8230F0296A11DB11DA9
:1002A000209302018093030190930401A093050120
:1002B000B09306018091070190910801A091090176
:1002C000B0910A010196A11DB11D80930701909381
:1002D0000801A0930901B0930A01BF91AF919F91CA
:1002E0008F913F912F910F900FBE0F901F901895F7
:1002F0003FB7F8948091070190910801A0910901FE
:10030000B0910A0126B5A89B05C02F3F19F00196B0
:10031000A11DB11D3FBFBA2FA92F982F8827820F8B
:10032000911DA11DB11DBC01CD0142E0660F771FDB
:10033000881F991F4A95D1F70895CF92DF92EF92C7
:10034000FF92CF93DF936B017C010E947801EB0158
:10035000C114D104E104F10479F00E9478016C1B0E
:100360007D0B683E7340A0F381E0C81AD108E10814
:10037000F108C851DC4FECCFDF91CF91FF90EF90A7
:10038000DF90CF900895789484B5826084BD84B561
:10039000816084BD85B5826085BD85B5816085BD80
:1003A000EEE6F0E0808181608083E1E8F0E0108299
:1003B000808182608083808181608083E0E8F0E0DA
:1003C000808181608083E1EBF0E0808184608083C4
:1003D000E0EBF0E0808181608083EAE7F0E08081FB
:1003E000846080838081826080838081816080835B
:1003F0008081806880831092C10008950E94C301AB
:100400000E947B00C0E0D0E00E9480002097E1F3D2
:0A0410000E940000F9CFF894FFCF1E
:02041A000D00D3
:00000001FF
