:060000000C94003008958D
:106000000C94CC340C9400350C9400350C94003571
:106010000C9400350C9400350C9400350C9400352C
:106020000C9400350C9400350C9400350C9400351C
:106030000C9400350C9400350C9400350C9400350C
:106040000C9400350C9400350C9400350C940035FC
:106050000C9400350C9400350C9400350C940035EC
:106060000C9400350C94003511833112EEC975CDB6
:1060700029D301042FBC4AFF94955E45F88B343A2E
:1060800055D5D1152AD6E2290133B5A3CC4645E52D
:10609000D3D3D3CDF5C6C6CEF622CE86DDB8CCCDD1
:1060A0007E76DC74F3D281BF271DC7996024C8D8DF
:1060B000FC944AD773BD3FD9C29A06592DE5A7B3C0
:1060C000CB5B4EF289E3A5BA5438E4349AC2DBD6EE
:1060D0003C38641D6F35F791119D2879F0A3C6C532
:1060E000E7F989389A97D77110AA511FDF33BE1A82
:1060F0009B7F0278F849255913E357C83A5C88B466
:106100006CE245C88EACBE0C32CA17F7EE439CA3B6
:10611000FE4EA15DFB7D8135463B579D91361C228D
:106120007789E09D039CF147A7145BD0F70D501CC5
:106130000F759BF0850FFFA3CE478FB0E479B55B59
:10614000D370D6A5E9C2A449EB0F4E9125289690AD
:10615000ECFA7F5718BCD2D8691A119ADF2DD67D78
:106160006913EC6EB97907200180BD7FC7FE05DB9E
:1061700040D0D89CEFCF61661C487BA2A6E914F5FD
:1061800015258A9EAA23B73F291F08898ED6A537D1
:106190001E1308BB8F029773FFFFFFFFFFFFFFFF78
:1061A000FFFFFFFFFFFFFFFFAAAAAAAAAAAAAAAAA7
:1061B000AAAAAAAAAAAAAAAACCCCCCCCCCCCCCCC2F
:1061C000CCCCCCCCCCCCCCCC9999999999999999A7
:1061D0009999999999999999F0F0F0F0F0F0F0F077
:1061E000F0F0F0F0F0F0F0F0A5A5A5A5A5A5A5A507
:1061F000A5A5A5A5A5A5A5A5C3C3C3C3C3C3C3C35F
:10620000C3C3C3C3C3C3C3C39696969696969696C6
:106210009696969696969696FF00FF00FF00FF00D2
:10622000FF00FF00FF00FF00AA55AA55AA55AA5576
:10623000AA55AA55AA55AA55CC33CC33CC33CC3366
:10624000CC33CC33CC33CC33996699669966996656
:106250009966996699669966F00FF00FF00FF00F46
:10626000F00FF00FF00FF00FA55AA55AA55AA55A36
:10627000A55AA55AA55AA55AC33CC33CC33CC33C26
:10628000C33CC33CC33CC33C966996699669966916
:106290009669966996699669FFFF0000FFFF000006
:1062A000FFFF0000FFFF0000AAAA5555AAAA5555F6
:1062B000AAAA5555AAAA5555CCCC3333CCCC3333E6
:1062C000CCCC3333CCCC33339999666699996666D6
:1062D0009999666699996666F0F00F0FF0F00F0FC6
:1062E000F0F00F0FF0F00F0FA5A55A5AA5A55A5AB6
:1062F000A5A55A5AA5A55A5AC3C33C3CC3C33C3CA6
:10630000C3C33C3CC3C33C3C969669699696696995
:106310009696696996966969FF0000FFFF0000FF85
:10632000FF0000FFFF0000FFAA5555AAAA5555AA75
:10633000AA5555AAAA5555AACC3333CCCC3333CC65
:10634000CC3333CCCC3333CC996666999966669955
:106350009966669999666699F00F0FF0F00F0FF045
:10636000F00F0FF0F00F0FF0A55A5AA5A55A5AA535
:10637000A55A5AA5A55A5AA5C33C3CC3C33C3CC325
:10638000C33C3CC3C33C3CC3966969969669699615
:106390009669699696696996FFFFFFFF0000000005
:1063A000FFFFFFFF00000000AAAAAAAA55555555F5
:1063B000AAAAAAAA55555555CCCCCCCC33333333E5
:1063C000CCCCCCCC333333339999999966666666D5
:1063D0009999999966666666F0F0F0F00F0F0F0FC5
:1063E000F0F0F0F00F0F0F0FA5A5A5A55A5A5A5AB5
:1063F000A5A5A5A55A5A5A5AC3C3C3C33C3C3C3CA5
:10640000C3C3C3C33C3C3C3C969696966969696994
:106410009696969669696969FF00FF0000FF00FF84
:10642000FF00FF0000FF00FFAA55AA5555AA55AA74
:10643000AA55AA5555AA55AACC33CC3333CC33CC64
:10644000CC33CC3333CC33CC996699666699669954
:106450009966996666996699F00FF00F0FF00FF044
:10646000F00FF00F0FF00FF0A55AA55A5AA55AA534
:10647000A55AA55A5AA55AA5C33CC33C3CC33CC324
:10648000C33CC33C3CC33CC3966996696996699614
:106490009669966969966996FFFF00000000FFFF04
:1064A000FFFF00000000FFFFAAAA55555555AAAAF4
:1064B000AAAA55555555AAAACCCC33333333CCCCE4
:1064C000CCCC33333333CCCC9999666666669999D4
:1064D0009999666666669999F0F00F0F0F0FF0F0C4
:1064E000F0F00F0F0F0FF0F0A5A55A5A5A5AA5A5B4
:1064F000A5A55A5A5A5AA5A5C3C33C3C3C3CC3C3A4
:10650000C3C33C3C3C3CC3C3969669696969969693
:106510009696696969699696FF0000FF00FFFF0083
:10652000FF0000FF00FFFF00AA5555AA55AAAA5573
:10653000AA5555AA55AAAA55CC3333CC33CCCC3363
:10654000CC3333CC33CCCC33996666996699996653
:106550009966669966999966F00F0FF00FF0F00F43
:10656000F00F0FF00FF0F00FA55A5AA55AA5A55A33
:10657000A55A5AA55AA5A55AC33C3CC33CC3C33C23
:10658000C33C3CC33CC3C33C966969966996966913
:106590009669699669969669FFFFFFFFFFFFFFFF07
:1065A0000000000000000000AAAAAAAAAAAAAAAA9B
:1065B0005555555555555555CCCCCCCCCCCCCCCCD3
:1065C000333333333333333399999999999999996B
:1065D0006666666666666666F0F0F0F0F0F0F0F00B
:1065E0000F0F0F0F0F0F0F0FA5A5A5A5A5A5A5A50B
:1065F0005A5A5A5A5A5A5A5AC3C3C3C3C3C3C3C3B3
:106600003C3C3C3C3C3C3C3C9696969696969696FA
:106610006969696969696969FF00FF00FF00FF0036
:1066200000FF00FF00FF00FFAA55AA55AA55AA5572
:1066300055AA55AA55AA55AACC33CC33CC33CC3362
:1066400033CC33CC33CC33CC996699669966996652
:106650006699669966996699F00FF00FF00FF00F42
:106660000FF00FF00FF00FF0A55AA55AA55AA55A32
:106670005AA55AA55AA55AA5C33CC33CC33CC33C22
:106680003CC33CC33CC33CC3966996699669966912
:106690006996699669966996FFFF0000FFFF000002
:1066A0000000FFFF0000FFFFAAAA5555AAAA5555F2
:1066B0005555AAAA5555AAAACCCC3333CCCC3333E2
:1066C0003333CCCC3333CCCC9999666699996666D2
:1066D0006666999966669999F0F00F0FF0F00F0FC2
:1066E0000F0FF0F00F0FF0F0A5A55A5AA5A55A5AB2
:1066F0005A5AA5A55A5AA5A5C3C33C3CC3C33C3CA2
:106700003C3CC3C33C3CC3C3969669699696696991
:106710006969969669699696FF0000FFFF0000FF81
:1067200000FFFF0000FFFF00AA5555AAAA5555AA71
:1067300055AAAA5555AAAA55CC3333CCCC3333CC61
:1067400033CCCC3333CCCC33996666999966669951
:106750006699996666999966F00F0FF0F00F0FF041
:106760000FF0F00F0FF0F00FA55A5AA5A55A5AA531
:106770005AA5A55A5AA5A55AC33C3CC3C33C3CC321
:106780003CC3C33C3CC3C33C966969969669699611
:106790006996966969969669FFFFFFFF0000000001
:1067A00000000000FFFFFFFFAAAAAAAA55555555F1
:1067B00055555555AAAAAAAACCCCCCCC33333333E1
:1067C00033333333CCCCCCCC9999999966666666D1
:1067D0006666666699999999F0F0F0F00F0F0F0FC1
:1067E0000F0F0F0FF0F0F0F0A5A5A5A55A5A5A5AB1
:1067F0005A5A5A5AA5A5A5A5C3C3C3C33C3C3C3CA1
:106800003C3C3C3CC3C3C3C3969696966969696990
:106810006969696996969696FF00FF0000FF00FF80
:1068200000FF00FFFF00FF00AA55AA5555AA55AA70
:1068300055AA55AAAA55AA55CC33CC3333CC33CC60
:1068400033CC33CCCC33CC33996699666699669950
:106850006699669999669966F00FF00F0FF00FF040
:106860000FF00FF0F00FF00FA55AA55A5AA55AA530
:106870005AA55AA5A55AA55AC33CC33C3CC33CC320
:106880003CC33CC3C33CC33C966996696996699610
:106890006996699696699669FFFF00000000FFFF00
:1068A0000000FFFFFFFF0000AAAA55555555AAAAF0
:1068B0005555AAAAAAAA5555CCCC33333333CCCCE0
:1068C0003333CCCCCCCC33339999666666669999D0
:1068D0006666999999996666F0F00F0F0F0FF0F0C0
:1068E0000F0FF0F0F0F00F0FA5A55A5A5A5AA5A5B0
:1068F0005A5AA5A5A5A55A5AC3C33C3C3C3CC3C3A0
:106900003C3CC3C3C3C33C3C96966969696996968F
:106910006969969696966969FF0000FF00FFFF007F
:1069200000FFFF00FF0000FFAA5555AA55AAAA556F
:1069300055AAAA55AA5555AACC3333CC33CCCC335F
:1069400033CCCC33CC3333CC99666699669999664F
:106950006699996699666699F00F0FF00FF0F00F3F
:106960000FF0F00FF00F0FF0A55A5AA55AA5A55A2F
:106970005AA5A55AA55A5AA5C33C3CC33CC3C33C1F
:106980003CC3C33CC33C3CC396696996699696690F
:106990006996966996696996112408E00EBF0FEF13
:1069A0000DBF60E170E080E090E00E949A3580E0E9
:1069B00091E00E94D63560E371E084E391E00E94AB
:1069C000E2358DE091E00E94D63560E371E084E32A
:1069D00091E00E94E23511241FBECFEFD8E0DEBF68
:1069E000CDBF11E0A0E0B1E0E4EBFAE702C0059012
:1069F0000D92A433B107D9F70E94FC3C0C94573D8B
:106A00000C94003008952F923F924F925F926F92B4
:106A10007F928F929F92AF92BF92CF92DF92EF922E
:106A2000FF920F931F93CF93DF93CDB7DEB7C9507B
:106A3000D1400FB6F894DEBF0FBECDBF2C013B0195
:106A40008C01C12CD12CCE0101967C014C01180186
:106A5000A12CB12CF10181911F01F601EA0DFB1D62
:106A6000E859FF49E491B4018E270E947938FFEF7D
:106A7000AF1ABF0A80E1880E911C90E1A916B104FB
:106A800049F7BE016F5F7E4FC7010E94CA37CE0132
:106A90008F5F9E4F0E94DE38C75FDE4F8883C950EC
:106AA000D140B701CE01875F9E4F0E94FB35480160
:106AB000A12CB12CC7010E940D39F601EA0DFB1D76
:106AC000E859FF49E4918E27F40181934F01FFEFCC
:106AD000AF1ABF0A80E1E80EF11C90E1A916B104DB
:106AE00049F7005F1F4FE0E1CE0ED11CF0E3CF1657
:106AF000F1E0DF0609F0A7CFB301C2010E942439FB
:106B0000C75FDE4F0FB6F894DEBF0FBECDBFDF917B
:106B1000CF911F910F91FF90EF90DF90CF90BF909A
:106B2000AF909F908F907F906F905F904F903F902D
:106B30002F9008950F931F93072F182F292F332776
:106B40000093C5006093C40082E08093C00086E09B
:106B50008093C20088E18093C1001F910F91089536
:106B60009091C00095FFFCCF8093C600089580915E
:106B7000C00087FFFCCF8091C6000895CF93282FD7
:106B800022952F70982F9F702A3010F480E301C057
:106B900087E3820F9A3010F4C0E301C0C7E3C90F46
:106BA0000E94B0358C2FCF910C94B035CF93DF93EA
:106BB000EC018991882319F00E94B035FACFDF915A
:106BC000CF9108950F931F93CF93DF93EC018C0126
:106BD000060F171FC017D10721F089910E94BE35FB
:106BE000F9CF8AE00E94B0358DE0DF91CF911F91FF
:106BF0000F910C94B035AF92BF92CF92DF92EF928B
:106C0000FF920F931F93CF93DF93CDB7DEB76F97AC
:106C10000FB6F894DEBF0FBECDBF7B016E0121E140
:106C2000C20ED11C2FE0F60111922A95E9F7FC0162
:106C30008081B60190E00E943B388701E12CF12C65
:106C4000FE0131965F0111921192CE16DF06D9F73F
:106C500047E050E0B501C7010E94713848E050E0BC
:106C6000B501C6010E94953890E0F8018193919397
:106C70008F01FFEFEF1AFF0A20E8E216F10401F797
:106C80006F960FB6F894DEBF0FBECDBFDF91CF91E8
:106C90001F910F91FF90EF90DF90CF90BF90AF903A
:106CA00008952F923F924F925F926F927F928F92B0
:106CB0009F92AF92BF92CF92DF92EF92FF920F938B
:106CC0001F93CF93DF935C0181E090E0D5018D931A
:106CD0009C93F7E08F2E912C22E030E066246394A1
:106CE000712CC90196958795AC01440F551F44241A
:106CF0005524441A550A60E070E0A0E0B0E0FA01C3
:106D0000E61BF70B6F01CA0CDB1C7201E61AF70ACF
:106D1000EC01C217D30770F48601060F171F0E0D82
:106D20001F1DF80100811181F601019311936F017C
:106D30002196EFCF11967A958A179B0701F71501D7
:106D4000182F0027C0E0D0E0F101BC0162177307E3
:106D500060F4C080D1807F01E00EF11ED701CD929A
:106D6000DC926F5F7F4FF395F1CF2196B2E02B0E4F
:106D7000311C8C179D0741F7040F151FC0E0C89FF9
:106D80007001C99FF00CF81A1124DC0140E050E0BA
:106D9000A217B30748F5FA01E00FF11FEA0DFB1D3A
:106DA0006701C41AD50A1A01240C351CBC016217EC
:106DB0007307B8F4EF01CC0DDD1DC20DD31D099092
:106DC000D881C02DD183C083219729F4CFEFDFEF85
:106DD000D183C08302C0718260826F5F7F4F329621
:106DE000E6CF11965395D4CF220F331FD1E08D1AE1
:106DF000910809F076CFDF91CF911F910F91FF900D
:106E0000EF90DF90CF90BF90AF909F908F907F904A
:106E10006F905F904F903F902F9008958F929F9228
:106E2000AF92BF92CF92DF92EF92FF920F931F9398
:106E3000CF93DF93FA01DC0180E090E082179307A3
:106E400039F111961C921E924B017F0140E050E0F7
:106E5000E401A990B9904E01E701C990D9907E0153
:106E6000AC9C8001AD9C100DBC9C100D1124CD90EC
:106E7000DC9011970C0D1D1D11961C930E934F5F06
:106E80005F4F4217530721F70196F3951296D6CF1D
:106E9000DF91CF911F910F91FF90EF90DF90CF90F6
:106EA000BF90AF909F908F900895BF92CF92DF9246
:106EB000EF92FF920F931F93CF93DF93B62EDC01D7
:106EC00020E030E02417350709F446C011961C92E3
:106ED0001E92CB2DD72F80E090E07901E4E0EE0CFC
:106EE000FF1CEA95E1F709911991FC0163E0F69521
:106EF000E7956A95E1F7EE0DFF1DE856FE49E4912E
:106F0000F0E06C01C094D09467E0C622DD2402C09A
:106F1000F595E795CA94E2F7E0FF04C0CC24C3944A
:106F2000D12C03C0CC24CA94DC2CC09EF001C19E9D
:106F3000F00DD09EF00D11240D911C911197E00FD2
:106F4000F11F1196FC93EE9301964817590759F6D5
:106F50002F5F3F4F1296B6CFDF91CF911F910F91C8
:106F6000FF90EF90DF90CF90BF90089520E030E049
:106F70004FEF5FEF2617370761F0DC01ED91FC91D1
:106F80001197EF2B11F44D935C932F5F3F4F0296B7
:106F9000F1CF0895CF92DF92EF92FF920F931F935C
:106FA000CF93DF93CDB7DEB7C251D1400FB6F8947F
:106FB000DEBF0FBECDBF8C017B0160E870E00E9498
:106FC000B637CF5EDE4F19821882C151D14040E8FA
:106FD00050E0B801CE0101960E94553720E830E01C
:106FE000AE01415F5E4FBE016F5E7E4FCE010196E6
:106FF0000E94AC388E010F5F1E4F68018EE0C80EF4
:10700000D11CF80111921192EC15FD05D9F747E05A
:1070100050E0B801C15FDE4F88819981CF50D140E7
:107020000E945438F7013196D8018C910E5F1F4FA2
:107030008193C016D106C1F7CF5EDE4F888199815A
:10704000C151D1401816190624F481E0F70180835C
:1070500002C0D7011C92CE5EDE4F0FB6F894DEBFA1
:107060000FBECDBFDF91CF911F910F91FF90EF9099
:10707000DF90CF900895CF93DF93DC01FB0138962A
:1070800020E830E091E0AD0142235323452B09F481
:1070900090E0EB019993BE0135952795CE17DF0758
:1070A00089F7DF91CF910895CF93DF939C01440F2F
:1070B000551FFB01E40FF51FC2E0D0E0211531059B
:1070C00069F0C901BE010E942F3D9293829337FF60
:1070D00002C02F5F3F4F35952795F0CFDF91CF91BD
:1070E0000895FB0121E030E021933193BF010C941E
:1070F0005438CF93DF93DB01509620E830E090E0E6
:10710000E1E0F0E0AC0142235323452B11F4E0E031
:10711000F0E0EB01E993F993BE0135952795CA1785
:10712000DB0771F7DF91CF910895CF93DF93EC01E7
:10713000FB01DC0190E09D012C1B3D0B2417350762
:1071400034F48D91208132962823920FF4CF892F29
:107150008170DF91CF910895EF92FF920F931F936B
:10716000CF93DF93E12CF12CE216F30604F5EC014A
:10717000A991B991CE018D01B7FF04C00027112755
:107180000A1B1B0BFB01C081D181D7FF03C0D19526
:10719000C195D109C017D10734F4EB01B983A88395
:1071A000FA01F182E082FFEFEF1AFF0ADDCFDF91F3
:1071B000CF911F910F91FF90EF900895FC01808176
:1071C00040E8849F90011124918140E4949FC00184
:1071D0001124822B932B2781822B228140E2249F32
:1071E00090011124282B392B438180E1489FA00175
:1071F0001124242B352B448198E0499FA0011124B0
:10720000242B352B458184E0489FA0011124242B99
:10721000352B8681880F822B0895FC0127E030E012
:1072200080E06191719141E050E06130710511F0B1
:1072300040E050E0022E01C0440F0A94EAF7842B8C
:107240002150310970F708958F929F92AF92BF92AB
:10725000CF92DF92EF92FF920F931F93CF93DF9322
:10726000CDB7DEB760970FB6F894DEBF0FBECDBFC7
:107270006C01962E872ECE0101967C0180E1F701EC
:1072800011928A95E9F7E62FF72FD70180E08D93C9
:1072900081938F5F8031D9F700E010E05E01F1E16A
:1072A000AF0EB11CB601600F711F892D982D0E9481
:1072B000A339D701E92DF82D9C91808189278193ED
:1072C0008D93AA15BB05C1F7005F1F4F003381E006
:1072D000180741F760960FB6F894DEBF0FBECDBF1A
:1072E000DF91CF911F910F91FF90EF90DF90CF90A2
:1072F000BF90AF909F908F9008950895089508953E
:107300000895089508950895089508950895089595
:107310000895AC0190E0292F30E02617370744F498
:10732000FA01E20FF31F862F891B80839F5FF3CF43
:107330000895FC0190E191939150E9F708950C9420
:1073400099390C9499393F924F925F926F927F9244
:107350008F929F92AF92BF92CF92DF92EF92FF9265
:107360000F931F93DC014D905D906D907D908D90FB
:107370009D90AD90BD90CD90DD90ED90FD900D91E4
:107380001D912D913C91FB01319043243190532468
:10739000319063243190732431908324319093246D
:1073A0003190A3243190B3243190C3243190D3245D
:1073B0003190E3243190F32431900325319013254B
:1073C0003190232530803325A60167017A018C2472
:1073D0009D24AE24BF24482D892C9A2CAB2CB42E8E
:1073E000880C991CAA1CBB1C811CC818D908EA0867
:1073F000FB080425152526253725A80189019A01B2
:10740000000F111F221F331F011D000F111F221F0C
:10741000331F011D000F111F221F331F011D401AB2
:10742000510A620A730A0C251D252E253F25402F7F
:10743000012F122F232F342FC01AD10AE20AF30A88
:10744000A20123013A0184249524A624B724482DBF
:10745000892C9A2CAB2CB42E880C991CAA1CBB1C12
:10746000811C880C991CAA1CBB1C811C880C991CB3
:10747000AA1CBB1C811C481859086A087B08A60175
:1074800067017A018C249D24AE24BF24482D892CC9
:107490009A2CAB2CB42E880C991CAA1CBB1C811CEA
:1074A000C818D908EA08FB0804251525262537251C
:1074B000A80189019A01000F111F221F331F011D0E
:1074C000000F111F221F331F011D000F111F221F4C
:1074D000331F011D401A510A620A730A0C251D252B
:1074E0002E253F25402F012F122F232F342FC01A76
:1074F000D10AE20AF30AA20123013A018424952465
:10750000A624B724482D892C9A2CAB2CB42E880C99
:10751000991CAA1CBB1C811C880C991CAA1CBB1C96
:10752000811C880C991CAA1CBB1C811C481859087A
:107530006A087B08A60167017A018C249D24AE2489
:10754000BF24482D892C9A2CAB2CB42E880C991C66
:10755000AA1CBB1C811CC818D908EA08FB08042512
:10756000152526253725A80189019A01000F111F2D
:10757000221F331F011D000F111F221F331F011D6A
:10758000000F111F221F331F011D401A510A620AEA
:10759000730A0C251D252E253F25402F012F122F64
:1075A000232F342FC01AD10AE20AF30AA2012301C1
:1075B0003A0184249524A624B724482D892C9A2C9A
:1075C000AB2CB42E880C991CAA1CBB1C811C880CEB
:1075D000991CAA1CBB1C811C880C991CAA1CBB1CD6
:1075E000811C481859086A087B08A60167017A01BE
:1075F0008C249D24AE24BF24482D892C9A2CAB2C9E
:10760000B42E880C991CAA1CBB1C811CC818D90854
:10761000EA08FB080425152526253725A801890138
:107620009A01000F111F221F331F011D000F111F90
:10763000221F331F011D000F111F221F331F011DA9
:10764000401A510A620A730A0C251D252E253F2572
:10765000402F012F122F232F342FC01AD10AE20AF4
:10766000F30AA20123013A0184249524A624B72415
:10767000482D892C9A2CAB2CB42E880C991CAA1C52
:10768000BB1C811C880C991CAA1CBB1C811C880C6F
:10769000991CAA1CBB1C811C481859086A087B0845
:1076A000A60167017A018C249D24AE24BF24482DB5
:1076B000892C9A2CAB2CB42E880C991CAA1CBB1CB0
:1076C000811CC818D908EA08FB08042515252625B9
:1076D0003725A80189019A01000F111F221F331FAE
:1076E000011D000F111F221F331F011D000F111F4D
:1076F000221F331F011D401A510A620A730A0C250A
:107700001D252E253F25402F012F122F232F342FEB
:10771000C01AD10AE20AF30AA20123013A01842421
:107720009524A624B724482D892C9A2CAB2CB42E52
:10773000880C991CAA1CBB1C811C880C991CAA1CB7
:10774000BB1C811C880C991CAA1CBB1C811C4818E2
:1077500059086A087B08A60167017A018C249D24D8
:10776000AE24BF24482D892C9A2CAB2CB42E880C27
:10777000991CAA1CBB1C811CC818D908EA08FB0864
:107780000425152526253725A80189019A01000F12
:10779000111F221F331F011D000F111F221F331F36
:1077A000011D000F111F221F331F011D401A510A16
:1077B000620A730A0C251D252E253F25402F012F17
:1077C000122F232F342FC01AD10AE20AF30AA20182
:1077D00023013A0184249524A624B724482D892C1A
:1077E0009A2CAB2CB42E880C991CAA1CBB1C811C97
:1077F000880C991CAA1CBB1C811C880C991CAA1CF7
:10780000BB1C811C481859086A087B08A60167013F
:107810007A018C249D24AE24BF24482D892C9A2CD7
:10782000AB2CB42E880C991CAA1CBB1C811CC8183C
:10783000D908EA08FB080425152526253725A801BF
:1078400089019A01000F111F221F331F011D000F14
:10785000111F221F331F011D000F111F221F331F75
:10786000011D401A510A620A730A0C251D252E2596
:107870003F25402F012F122F232F342FC01AD10A5A
:10788000E20AF30AA20123013A0184249524A624E2
:10789000B724482D892C9A2CAB2CB42E880C991C1B
:1078A000AA1CBB1C811C880C991CAA1CBB1C811C1B
:1078B000880C991CAA1CBB1C811C481859086A0812
:1078C0007B08A60167017A018C249D24AE24BF2485
:1078D000482D892C9A2CAB2CB42E880C991CAA1CF0
:1078E000BB1C811CC818D908EA08FB08042515250B
:1078F00026253725A80189019A01000F111F221F93
:10790000331F011D000F111F221F331F011D000F08
:10791000111F221F331F011D401A510A620A730AE8
:107920000C251D252E253F25402F012F122F232FFB
:10793000342FC01AD10AE20AF30AA20123013A0144
:1079400084249524A624B724482D892C9A2CAB2C6A
:10795000B42E880C991CAA1CBB1C811C880C991C79
:10796000AA1CBB1C811C880C991CAA1CBB1C811C5A
:10797000481859086A087B0833253290232532902D
:107980001325329003253290F3243290E324329071
:10799000D3243290C3243290B3243290A324329063
:1079A0009324329083243290732432906324329053
:1079B0005324329043243C932E931E930E93FE92B5
:1079C000EE92DE92CE92BE92AE929E928E927E9277
:1079D0006E925E924E921F910F91FF90EF90DF900A
:1079E000CF90BF90AF909F908F907F906F905F905F
:1079F0004F903F9008950895CF93DF93CDB7DEB7B2
:107A000060970FB6F894DEBF0FBECDBF8E010F5F3B
:107A10001F4F80E1F80111928A95E9F70E94B7356E
:107A2000803729F460E371E084E391E005C08B3690
:107A300031F460E170E0C8010E94E235EFCF863694
:107A400069F78AE191E00E94D635B80184E391E0BC
:107A50000E94033586E291E00E94D635DFCF97FB86
:107A6000072E16F4009407D077FD09D00E94433DFD
:107A700007FC05D03EF4909581959F4F0895709531
:107A800061957F4F0895AA1BBB1B51E107C0AA1F38
:107A9000BB1FA617B70710F0A61BB70B881F991FAF
:107AA0005A95A9F780959095BC01CD010895F89459
:027AB000FFCF06
:027AB2000108C9
:107AB40070756620696E6974303A0A0D00707566D7
:107AC40020696E6974313A0A0D0065736567756FD4
:107AD4002046450A0D0066696E652064656C204683
:047AE400450A0D0042
:040000030000600099
:00000001FF
