:100000000C945D000C9485000C9485000C94850084
:100010000C9485000C9485000C9485000C9485004C
:100020000C9485000C9485000C9485000C9485003C
:100030000C9485000C9485000C9485000C9485002C
:100040000C946A020C9485000C9438020C941202F1
:100050000C9485000C9485000C9485000C9485000C
:100060000C9485000C9485000000000024002700FB
:100070002A0000000000250028002B0004040404CE
:100080000404040402020202020203030303030342
:10009000010204081020408001020408102001021F
:1000A00004081020000000080002010000030407FB
:1000B00000000000000000004A0411241FBECFEF22
:1000C000D8E0DEBFCDBF11E0A0E0B1E0ECE4F9E0A4
:1000D00002C005900D92A232B107D9F721E0A2E249
:1000E000B1E001C01D92AB3CB207E1F710E0CDE5F5
:1000F000D0E004C02197FE010E949904CC35D107BD
:10010000C9F70E94B4020C94A4040C940000EDEA18
:10011000F0E02491E9E9F0E09491E5E8F0E0E49181
:10012000EE2309F43BC0222339F1233091F038F457
:100130002130A9F0223001F524B52F7D12C02730DF
:1001400091F02830A1F02430B9F4209180002F7D67
:1001500003C0209180002F77209380000DC024B52C
:100160002F7724BD09C02091B0002F7703C02091C4
:10017000B0002F7D2093B000F0E0EE0FFF1FEE588F
:10018000FF4FA591B4912FB7F894EC91811103C062
:1001900090959E2301C09E2B9C932FBF0895CF92D4
:1001A000DF92EF92FF920F931F93CF93DF936C0137
:1001B0007A018B01C0E0D0E0CE15DF0589F0D801CF
:1001C0006D918D01D601ED91FC910190F081E02DB2
:1001D000C6010995892B11F47E0102C02196ECCF4E
:1001E000C701DF91CF911F910F91FF90EF90DF90AA
:1001F000CF900895089580E090E00895FC01538D1C
:10020000448D252F30E0842F90E0821B930B5417F0
:1002100010F0CF96089501970895FC01918D828D7D
:10022000981761F0828DDF01A80FB11D5D968C914A
:10023000928D9F5F9F73928F90E008958FEF9FEF55
:100240000895FC01918D828D981731F0828DE80F11
:10025000F11D858D90E008958FEF9FEF0895FC01CB
:10026000918D228D892F90E0805C9F4F821B910998
:100270008F73992708958EE291E00E942F0121E06B
:10028000892B09F420E0822F0895FC01848DDF0181
:10029000A80FB11DA35ABF4F2C91848D90E00196F9
:1002A0008F739927848FA689B7892C93A089B189E8
:1002B0008C9180648C93938D848D981306C00288F2
:1002C000F389E02D80818F7D80830895EF92FF92E6
:1002D0000F931F93CF93DF93EC0181E0888F9B8D69
:1002E0008C8D981305C0E889F989808185FD24C02B
:1002F000F62E0B8D10E00F5F1F4F0F731127E02EAE
:100300008C8DE8120CC00FB607FCFACFE889F9898A
:10031000808185FFF5CFCE010E944501F1CF8B8D05
:10032000FE01E80FF11DE35AFF4FF0820B8FEA89BF
:10033000FB898081806207C0EE89FF896083E8893C
:10034000F98980818064808381E090E0DF91CF91A2
:100350001F910F91FF90EF900895CF93DF93EC01E1
:10036000888D8823C9F0EA89FB89808185FD05C0D5
:10037000A889B9898C9186FD0FC00FB607FCF5CF0F
:10038000808185FFF2CFA889B9898C9185FFEDCF57
:10039000CE010E944501E7CFDF91CF91089580E023
:1003A00090E0892B29F00E943B0181110C94000000
:1003B00008953FB7F8948091270190912801A0916A
:1003C0002901B0912A0126B5A89B05C02F3F19F03D
:1003D0000196A11DB11D3FBFBA2FA92F982F8827C5
:1003E000820F911DA11DB11DBC01CD0142E0660F20
:1003F000771F881F991F4A95D1F70895009769F0D4
:10040000FC0101900020E9F73197AF01481B590B1F
:10041000BC018EE291E00C94CF0080E090E0089562
:100420000E949F041F920F920FB60F9211242F93D8
:100430003F934F935F936F937F938F939F93AF936C
:10044000BF93EF93FF938EE291E00E944501FF91ED
:10045000EF91BF91AF919F918F917F916F915F913C
:100460004F913F912F910F900FBE0F901F901895B5
:100470001F920F920FB60F9211242F938F939F9379
:10048000EF93FF93E0913E01F0913F018081E09175
:100490004401F091450182FD12C090818091470195
:1004A0008F5F8F7320914801821751F0E0914701CF
:1004B000F0E0E25DFE4F958F8093470101C080819F
:1004C000FF91EF919F918F912F910F900FBE0F9001
:1004D0001F9018951F920F920FB60F9211242F9311
:1004E0003F938F939F93AF93BF93809123019091FC
:1004F0002401A0912501B09126013091220123E031
:10050000230F2D3720F40196A11DB11D05C026E84B
:10051000230F0296A11DB11D209322018093230178
:1005200090932401A0932501B09326018091270187
:1005300090912801A0912901B0912A010196A11D55
:10054000B11D8093270190932801A0932901B093B6
:100550002A01BF91AF919F918F913F912F910F9061
:100560000FBE0F901F901895CF93DF93CDB7DEB7D6
:10057000A1970FB6F894DEBF0FBECDBF789484B5B7
:10058000826084BD84B5816084BD85B5826085BD8F
:1005900085B5816085BD80916E00816080936E001D
:1005A000109281008091810082608093810080910F
:1005B00081008160809381008091800081608093C0
:1005C00080008091B10084608093B1008091B00080
:1005D00081608093B00080917A00846080937A007B
:1005E00080917A00826080937A0080917A008160A5
:1005F00080937A0080917A00806880937A001092CC
:10060000C100E0913E01F0913F0182E08083E091E2
:100610003A01F0913B011082E0913C01F0913D01E3
:1006200080E1808310924601E0914201F091430104
:1006300086E08083E0914001F091410180818061FA
:100640008083E0914001F091410180818860808346
:10065000E0914001F0914101808180688083E091C8
:100660004001F091410180818F7D80835AE0452EC9
:10067000512C612C712C69E9262E60E0362E8EE219
:1006800091E00E942F01181619060CF065C08EE249
:1006900091E00E940D0180932D01893639F48FEF8E
:1006A00090E090932C0180932B0106C08F3621F4AB
:1006B00010922C0110922B0182E191E00E94FE0128
:1006C00020912B0130912C016901330FEE08FF08B6
:1006D000F7FE26C0E0912E01F0912F010190F081EC
:1006E000E02D6DE28EE291E0099522273327A901E2
:1006F0002C193D094E095F0919A28E010F5D1F4F8C
:10070000CA01B901A30192010E947704605DF8015A
:1007100062938F01211531054105510589F715C0F7
:10072000A701960119A28E010F5D1F4FCA01B901E1
:10073000A30192010E947704605DF80162938F012A
:10074000211531054105510589F7C8010E94FE01B7
:100750008EE191E00E94FE0120912B0130912C014D
:10076000F1016491E5E8F0E08491882399F090E04C
:10077000880F991FFC01E859FF4FA591B491FC0126
:10078000EE58FF4F459154918FB7F8949C91692B87
:100790006C938FBF2115310511F480E004C02F3F09
:1007A000310521F481E00E94870043C0EDEAF0E0CA
:1007B00084918330F9F048F48130B9F08230A1F5AA
:1007C00084B5806284BD28BD34C08730E9F08830AC
:1007D00019F1843049F58091800080628093800017
:1007E00030938B0020938A0024C084B5806884BD38
:1007F00027BD1FC080918000806880938000309367
:1008000089002093880015C08091B0008068809393
:10081000B0002093B3000DC08091B000806280933F
:10082000B0002093B40005C0203831050CF0BACFD9
:10083000B4CF0E94D9016B017C0182E390E0A0E07B
:10084000B0E04C015D010E94D901DC01CB018C19A3
:100850009D09AE09BF09883E9340A105B10588F006
:10086000F1E08F1A9108A108B10828EEC20E23E02A
:10087000D21EE11CF11C81149104A104B10419F7EA
:1008800006C0D501C40189288A288B28D1F60E9488
:10089000CF01F5CEEEE2F1E01382128288EE93E012
:1008A000A0E0B0E084839583A683B78384E091E0E1
:1008B0009183808385EC90E09587848784EC90E039
:1008C0009787868780EC90E0918B808B81EC90E01D
:1008D000938B828B82EC90E0958B848B86EC90E0FE
:1008E000978B868B118E128E138E148E0895A1E233
:1008F0001A2EAA1BBB1BFD010DC0AA1FBB1FEE1F9A
:10090000FF1FA217B307E407F50720F0A21BB30BE4
:10091000E40BF50B661F771F881F991F1A9469F760
:1009200060957095809590959B01AC01BD01CF01BC
:100930000895EE0FFF1F0590F491E02D099481E0DA
:0C09400090E0F8940C94A404F894FFCF0D
:10094C00000000006601CF00FE00AD012F010D017B
:10095C00210109206F7574707574203D20000D0AFB
:02096C00000089
:00000001FF
