:060000000C9400180895A5
:103000000C94CC1C0C94081D0C94081D0C94081DE9
:103010000C94081D0C94081D0C94081D0C94081D9C
:103020000C94081D0C94081D0C94081D0C94081D8C
:103030000C94081D0C94081D0C94081D0C94081D7C
:103040000C94081D0C94081D0C94081D0C94081D6C
:103050000C94081D0C94081D0C94081D0C94081D5C
:103060000C94081D0C94081D40C6540069BFE7A9C4
:1030700082321253431EB633F551557F76B8BBC228
:1030800098659110E7B058C033233227C701084430
:1030900091632671448E9CC62245466E9D0449CD9F
:1030A0000436242659982D7B0D8309CFF994B6CE8A
:1030B000CF42F5F7A9B131D94B5A5174A58789A5EB
:1030C0000AF315C8CF26AA05AEA5DD6C7345C24F1D
:1030D000C6321634E7E006202D606839571A32945C
:1030E000A0E77050942485F6227EC2358E01F40A42
:1030F000D9A615A7CD48F5C9D761E2DECACD3A9366
:103100005E4075A2BEE7D29F360AE6DEA0B774F332
:10311000BBFD370EECA9C77B3AD0600A938093F4CD
:103120002108B716D992C93207761E81E5BAE9C3DC
:103130005CF01956D2CDB38D7BF47040E159B67B6B
:10314000584D0A350705BFD74FEA89305AF505B4FF
:103150002580062BC8BBD8E8EAC479EA96BD9D69EC
:10316000D182CC16C63B870561C97A3C87F590852C
:103170003280B8D9DBF300694C497E2E8FBA51DB1F
:1031800015B73AE113A9EF70B912C4D5DE437B3EFF
:103190001B37CFB6ECE17FF6FFFFFFFFFFFFFFFF1E
:1031A000FFFFFFFFFFFFFFFFAAAAAAAAAAAAAAAAD7
:1031B000AAAAAAAAAAAAAAAACCCCCCCCCCCCCCCC5F
:1031C000CCCCCCCCCCCCCCCC9999999999999999D7
:1031D0009999999999999999F0F0F0F0F0F0F0F0A7
:1031E000F0F0F0F0F0F0F0F0A5A5A5A5A5A5A5A537
:1031F000A5A5A5A5A5A5A5A5C3C3C3C3C3C3C3C38F
:10320000C3C3C3C3C3C3C3C39696969696969696F6
:103210009696969696969696FF00FF00FF00FF0002
:10322000FF00FF00FF00FF00AA55AA55AA55AA55A6
:10323000AA55AA55AA55AA55CC33CC33CC33CC3396
:10324000CC33CC33CC33CC33996699669966996686
:103250009966996699669966F00FF00FF00FF00F76
:10326000F00FF00FF00FF00FA55AA55AA55AA55A66
:10327000A55AA55AA55AA55AC33CC33CC33CC33C56
:10328000C33CC33CC33CC33C966996699669966946
:103290009669966996699669FFFF0000FFFF000036
:1032A000FFFF0000FFFF0000AAAA5555AAAA555526
:1032B000AAAA5555AAAA5555CCCC3333CCCC333316
:1032C000CCCC3333CCCC3333999966669999666606
:1032D0009999666699996666F0F00F0FF0F00F0FF6
:1032E000F0F00F0FF0F00F0FA5A55A5AA5A55A5AE6
:1032F000A5A55A5AA5A55A5AC3C33C3CC3C33C3CD6
:10330000C3C33C3CC3C33C3C9696696996966969C5
:103310009696696996966969FF0000FFFF0000FFB5
:10332000FF0000FFFF0000FFAA5555AAAA5555AAA5
:10333000AA5555AAAA5555AACC3333CCCC3333CC95
:10334000CC3333CCCC3333CC996666999966669985
:103350009966669999666699F00F0FF0F00F0FF075
:10336000F00F0FF0F00F0FF0A55A5AA5A55A5AA565
:10337000A55A5AA5A55A5AA5C33C3CC3C33C3CC355
:10338000C33C3CC3C33C3CC3966969969669699645
:103390009669699696696996FFFFFFFF0000000035
:1033A000FFFFFFFF00000000AAAAAAAA5555555525
:1033B000AAAAAAAA55555555CCCCCCCC3333333315
:1033C000CCCCCCCC33333333999999996666666605
:1033D0009999999966666666F0F0F0F00F0F0F0FF5
:1033E000F0F0F0F00F0F0F0FA5A5A5A55A5A5A5AE5
:1033F000A5A5A5A55A5A5A5AC3C3C3C33C3C3C3CD5
:10340000C3C3C3C33C3C3C3C9696969669696969C4
:103410009696969669696969FF00FF0000FF00FFB4
:10342000FF00FF0000FF00FFAA55AA5555AA55AAA4
:10343000AA55AA5555AA55AACC33CC3333CC33CC94
:10344000CC33CC3333CC33CC996699666699669984
:103450009966996666996699F00FF00F0FF00FF074
:10346000F00FF00F0FF00FF0A55AA55A5AA55AA564
:10347000A55AA55A5AA55AA5C33CC33C3CC33CC354
:10348000C33CC33C3CC33CC3966996696996699644
:103490009669966969966996FFFF00000000FFFF34
:1034A000FFFF00000000FFFFAAAA55555555AAAA24
:1034B000AAAA55555555AAAACCCC33333333CCCC14
:1034C000CCCC33333333CCCC999966666666999904
:1034D0009999666666669999F0F00F0F0F0FF0F0F4
:1034E000F0F00F0F0F0FF0F0A5A55A5A5A5AA5A5E4
:1034F000A5A55A5A5A5AA5A5C3C33C3C3C3CC3C3D4
:10350000C3C33C3C3C3CC3C39696696969699696C3
:103510009696696969699696FF0000FF00FFFF00B3
:10352000FF0000FF00FFFF00AA5555AA55AAAA55A3
:10353000AA5555AA55AAAA55CC3333CC33CCCC3393
:10354000CC3333CC33CCCC33996666996699996683
:103550009966669966999966F00F0FF00FF0F00F73
:10356000F00F0FF00FF0F00FA55A5AA55AA5A55A63
:10357000A55A5AA55AA5A55AC33C3CC33CC3C33C53
:10358000C33C3CC33CC3C33C966969966996966943
:103590009669699669969669FFFFFFFFFFFFFFFF37
:1035A0000000000000000000AAAAAAAAAAAAAAAACB
:1035B0005555555555555555CCCCCCCCCCCCCCCC03
:1035C000333333333333333399999999999999999B
:1035D0006666666666666666F0F0F0F0F0F0F0F03B
:1035E0000F0F0F0F0F0F0F0FA5A5A5A5A5A5A5A53B
:1035F0005A5A5A5A5A5A5A5AC3C3C3C3C3C3C3C3E3
:103600003C3C3C3C3C3C3C3C96969696969696962A
:103610006969696969696969FF00FF00FF00FF0066
:1036200000FF00FF00FF00FFAA55AA55AA55AA55A2
:1036300055AA55AA55AA55AACC33CC33CC33CC3392
:1036400033CC33CC33CC33CC996699669966996682
:103650006699669966996699F00FF00FF00FF00F72
:103660000FF00FF00FF00FF0A55AA55AA55AA55A62
:103670005AA55AA55AA55AA5C33CC33CC33CC33C52
:103680003CC33CC33CC33CC3966996699669966942
:103690006996699669966996FFFF0000FFFF000032
:1036A0000000FFFF0000FFFFAAAA5555AAAA555522
:1036B0005555AAAA5555AAAACCCC3333CCCC333312
:1036C0003333CCCC3333CCCC999966669999666602
:1036D0006666999966669999F0F00F0FF0F00F0FF2
:1036E0000F0FF0F00F0FF0F0A5A55A5AA5A55A5AE2
:1036F0005A5AA5A55A5AA5A5C3C33C3CC3C33C3CD2
:103700003C3CC3C33C3CC3C39696696996966969C1
:103710006969969669699696FF0000FFFF0000FFB1
:1037200000FFFF0000FFFF00AA5555AAAA5555AAA1
:1037300055AAAA5555AAAA55CC3333CCCC3333CC91
:1037400033CCCC3333CCCC33996666999966669981
:103750006699996666999966F00F0FF0F00F0FF071
:103760000FF0F00F0FF0F00FA55A5AA5A55A5AA561
:103770005AA5A55A5AA5A55AC33C3CC3C33C3CC351
:103780003CC3C33C3CC3C33C966969969669699641
:103790006996966969969669FFFFFFFF0000000031
:1037A00000000000FFFFFFFFAAAAAAAA5555555521
:1037B00055555555AAAAAAAACCCCCCCC3333333311
:1037C00033333333CCCCCCCC999999996666666601
:1037D0006666666699999999F0F0F0F00F0F0F0FF1
:1037E0000F0F0F0FF0F0F0F0A5A5A5A55A5A5A5AE1
:1037F0005A5A5A5AA5A5A5A5C3C3C3C33C3C3C3CD1
:103800003C3C3C3CC3C3C3C39696969669696969C0
:103810006969696996969696FF00FF0000FF00FFB0
:1038200000FF00FFFF00FF00AA55AA5555AA55AAA0
:1038300055AA55AAAA55AA55CC33CC3333CC33CC90
:1038400033CC33CCCC33CC33996699666699669980
:103850006699669999669966F00FF00F0FF00FF070
:103860000FF00FF0F00FF00FA55AA55A5AA55AA560
:103870005AA55AA5A55AA55AC33CC33C3CC33CC350
:103880003CC33CC3C33CC33C966996696996699640
:103890006996699696699669FFFF00000000FFFF30
:1038A0000000FFFFFFFF0000AAAA55555555AAAA20
:1038B0005555AAAAAAAA5555CCCC33333333CCCC10
:1038C0003333CCCCCCCC3333999966666666999900
:1038D0006666999999996666F0F00F0F0F0FF0F0F0
:1038E0000F0FF0F0F0F00F0FA5A55A5A5A5AA5A5E0
:1038F0005A5AA5A5A5A55A5AC3C33C3C3C3CC3C3D0
:103900003C3CC3C3C3C33C3C9696696969699696BF
:103910006969969696966969FF0000FF00FFFF00AF
:1039200000FFFF00FF0000FFAA5555AA55AAAA559F
:1039300055AAAA55AA5555AACC3333CC33CCCC338F
:1039400033CCCC33CC3333CC99666699669999667F
:103950006699996699666699F00F0FF00FF0F00F6F
:103960000FF0F00FF00F0FF0A55A5AA55AA5A55A5F
:103970005AA5A55AA55A5AA5C33C3CC33CC3C33C4F
:103980003CC3C33CC33C3CC396696996699696693F
:103990006996966996696996112408E00EBF0FEF43
:1039A0000DBF60E170E080E090E00E94E92684E2D3
:1039B00092E00E94252760E371E088EC93E00E948A
:1039C000312781E392E00E94252760E371E088ECD3
:1039D00093E00E94312711241FBECFEFD8E0DEBF55
:1039E000CDBF13E0A0E0B1E0E8E6F3E702C0059048
:1039F0000D92A23CB107D9F723E0A2ECB3E001C0DD
:103A00001D92A83CB207E1F70E944F320C94B139E5
:103A10000C9400186F927F928F929F92AF92BF92F8
:103A2000CF92DF92EF92FF920F931F93CF93DF938A
:103A3000CDB7DEB7C054D1090FB6F894DEBF0FBEC4
:103A4000CDBF5C016A01490138016115710571F44E
:103A50000E94E3276C01AC0160E070E0CE010196AA
:103A60000E944A36BE016F5F7F4F02C057FD08C0FB
:103A700086019B01A301B401C5010E94F91F02C088
:103A800084E090E0C05CDF4F0FB6F894DEBF0FBE5D
:103A9000CDBFDF91CF911F910F91FF90EF90DF90FD
:103AA000CF90BF90AF909F908F907F906F90089530
:103AB0002F923F924F925F926F927F928F929F923E
:103AC000AF92BF92CF92DF92EF92FF920F931F932C
:103AD000CF93DF93CDB7DEB7C154D1400FB6F89482
:103AE000DEBF0FBECDBFC45CDE4F99838883CC534D
:103AF000D140C05CDE4F79836883C054D1401A0145
:103B000049012701232B29F017FF09C084E090E029
:103B1000A5C000E010E097E9892E92E0992E1C14D0
:103B20001D04A4F74114510489F3C45CDE4F88815D
:103B30009981CC53D1400E94E3277C012816390695
:103B40002CF3C601B7010E949E345B01892B19F04A
:103B50008FEFA81AB80A8FEFA816B10409F0B4F6CF
:103B60003601CC24C394D12CC25CDE4F1882CE53D4
:103B7000D140C15CDE4F1882CF53D140AC14BD049C
:103B80000CF448C0C55CDE4FC882CB53D1409101D4
:103B9000C05CDE4F48815981C054D140C45CDE4FC7
:103BA00068817981CC53D140CE0101960E94A01E3C
:103BB000892B99F5C25CDE4F4881CE53D140C15C60
:103BC000DE4F5881CF53D140BE0165507F4FCE01AB
:103BD00001960E94651F892B01F5A801B401CE0151
:103BE00001960E94651F892BC1F441E050E0BE019F
:103BF000655C7E4FCE0101960E94651F892B69F49A
:103C0000BE0165507F4FCE0101960E94871F892B10
:103C100021F406C080E090E021C081E090E01EC069
:103C2000AC14BD04C9F4A301BE0165507F4FC201AD
:103C30000E9441368FEFC81AD80A6E187F084E0CC2
:103C40005F1CC25CDE4FE882CE53D140C15CDE4FC8
:103C5000F882CF53D14092CFA701E6CFCF5BDE4FA2
:103C60000FB6F894DEBF0FBECDBFDF91CF911F918D
:103C70000F91FF90EF90DF90CF90BF90AF909F900B
:103C80008F907F906F905F904F903F902F9008950E
:103C90002F923F924F925F926F927F928F929F925C
:103CA000AF92BF92CF92DF92EF92FF920F931F934A
:103CB000CF93DF93CDB7DEB7C054D1090FB6F894D8
:103CC000DEBF0FBECDBF3C01170126016401CE014E
:103CD00001967C01C3010E940A1D892BA9F4C3012E
:103CE0000E94E327750182019101AC01BE016F5F63
:103CF0007F4FC3010E94581D31E020E0892B09F459
:103D000030E0832F922F02C081E090E0C05CDF4F53
:103D10000FB6F894DEBF0FBECDBFDF91CF911F91DC
:103D20000F91FF90EF90DF90CF90BF90AF909F905A
:103D30008F907F906F905F904F903F902F9008955D
:103D40002F923F924F925F926F927F928F929F92AB
:103D5000AF92BF92CF92DF92EF92FF920F931F9399
:103D6000CF93DF93CDB7DEB7C05CD1090FB6F8941F
:103D7000DEBF0FBECDBF7C015B013A018901009718
:103D800009F487C0FC01EA50FF4F118210822C0118
:103D900088EF480E511CF20111821082CB010E9463
:103DA000E0274C01F70195838483C5010E94E32736
:103DB0001C01F70182833382B182A082CE01019679
:103DC0006C0180169106D4F4B5010E94C527892B99
:103DD00009F05FC0A801B301C6010E94D027892B5A
:103DE00009F057C03E0191E8690E711CB301C6018C
:103DF0000E94D827892B09F04CC08101B30197019B
:103E00002A583F4FD60146E35CE5CD018C199D0948
:103E1000801791075CF4FB018191BF01982F9427D3
:103E20009D938527F90181939F01EFCF17FF02C072
:103E300000E010E0D601A00FB11F0A581F4FF70194
:103E4000E00FF11F26E33CE5CD018C199D09881593
:103E500099051CF42D933193F7CFF6E0EF0EF11C8A
:103E6000B501C7010E94C527892B69F4A401B601D9
:103E7000C7010E94D02731E020E0892B09F430E00F
:103E8000832F922F02C081E090E0F2018083918322
:103E900002C081E090E0C054DF4F0FB6F894DEBF5F
:103EA0000FBECDBFDF91CF911F910F91FF90EF908B
:103EB000DF90CF90BF90AF909F908F907F906F904A
:103EC0005F904F903F902F900895CF93DF939C0188
:103ED0000097C1F0EC01C850DF4F888199810097AD
:103EE00099F4F901EA50FF4F80819181892B19F0F3
:103EF00083E090E004C0C90106960E94D027998310
:103F0000888302C081E090E0DF91CF910895AF9265
:103F1000BF92CF92DF92EF92FF920F931F93CF93B6
:103F2000DF93009709F457C08C0108501F4FF80128
:103F3000208131812115310509F04FC07C01F6EF58
:103F4000EF0EF11CF70120813181232B41F083E03A
:103F500090E0F8019183808323E030E03EC05B0174
:103F6000EC016C01F6E0CF0ED11CC6010E94D827EF
:103F7000892B19F091E080E023C068817981C60126
:103F80000E94C527892BB1F74C815D81BE016A581B
:103F90007F4FC6010E94D027892B61F74A815B8140
:103FA000B501C6010E94D027892B21F7B501C601B2
:103FB0000E94D82731E020E0892B09F430E0C901C4
:103FC00021E030E0F70131832083F8019083818381
:103FD000292F382F02C021E030E0C901DF91CF91B5
:103FE0001F910F91FF90EF90DF90CF90BF90AF9017
:103FF0000895AF92BF92CF92DF92EF92FF920F930C
:104000001F93CF93DF93CDB7DEB7CA5FD1090FB649
:10401000F894DEBF0FBECDBF6B015A01A901980114
:10402000BC01CE0101960E94A01E892B19F081E0EF
:1040300090E014C0A501B601CE0101960E94651F53
:10404000892BA9F7B701CE0101960E94871F31E0A5
:1040500020E0892B09F430E0832F922FC650DF4FE8
:104060000FB6F894DEBF0FBECDBFDF91CF911F9189
:104070000F91FF90EF90DF90CF90BF90AF90089599
:104080002F923F924F925F926F927F928F929F9268
:10409000AF92BF92CF92DF92EF92FF920F931F9356
:1040A000CF93DF93CDB7DEB7C950D1400FB6F894A8
:1040B000DEBF0FBECDBF2C013B018C01C12CD12C2A
:1040C000CE0101967C014C011801A12CB12CF1010B
:1040D00081911F01F601EA0DFB1DE859FF4CE491A7
:1040E000B4018E270E948E2AFFEFAF1ABF0A80E12B
:1040F000880E911C90E1A916B10449F7BE016F5FCB
:104100007E4FC7010E94DF29CE018F5F9E4F0E9424
:10411000F32AC75FDE4F8883C950D140B701CE0173
:10412000875F9E4F0E9410284801A12CB12CC70127
:104130000E94222BF601EA0DFB1DE859FF4CE49189
:104140008E27F40181934F01FFEFAF1ABF0A80E180
:10415000E80EF11C90E1A916B10449F7005F1F4F6A
:10416000E0E1CE0ED11CF0E3CF16F1E0DF0609F05E
:10417000A7CFB301C2010E94392BC75FDE4F0FB634
:10418000F894DEBF0FBECDBFDF91CF911F910F918D
:10419000FF90EF90DF90CF90BF90AF909F908F9067
:1041A0007F906F905F904F903F902F9008952F9247
:1041B0003F924F925F926F927F928F929F92AF92B7
:1041C000BF92CF92DF92EF92FF920F931F93CF9304
:1041D000DF93CDB7DEB7C054D1400FB6F894DEBF41
:1041E0000FBECDBF1C01FC018E010F5F1F4FCB5EC8
:1041F000DE4F19830883C551D140AC01405C5F4F4D
:10420000980162A583A590E0A0E0B0E0DC019927C9
:104210008827B62B65A5862B64A56C017D01D62A5F
:10422000D901CD92DD92ED92FD929D0134964E170B
:104230005F0739F78E010F531F4FCB5EDE4FE881CA
:10424000F981C551D140CF5FDE4FF983E883C1507A
:10425000D140CF5FDE4F28813981C150D140D90193
:10426000D8964D915D916D917C91DB9714968D91CF
:104270009D910D90BC91A02DF9013496CF5FDE4F3A
:10428000F983E883C150D1404A015B01EFE0880C1B
:10429000991CAA1CBB1CEA95D1F76A017B01F1E1CC
:1042A000F694E794D794C794FA95D1F78C289D2873
:1042B000AE28BF282A013B01EDE0440C551C661CCA
:1042C000771CEA95D1F76A017B01F3E1F694E79454
:1042D000D794C794FA95D1F7C428D528E628F728AB
:1042E0008C249D24AE24BF24EAE0769567955795EB
:1042F0004795EA95D1F7482559256A257B25F90187
:1043000084A095A0A6A0B7A0C080D180E280F38051
:104310008C0C9D1CAE1CBF1C840E951EA61EB71EC9
:104320002C013D01F7E07694679457944794FA95F1
:10433000D1F7AC01BD0129E1440F551F661F771F5E
:104340002A95D1F7442A552A662A772AAC01BD015D
:104350003EE0440F551F661F771F3A95D1F76C0159
:104360007D01E2E1F694E794D794C794EA95D1F7FA
:10437000C42AD52AE62AF72A4C245D246E247F24F9
:10438000F3E0B695A79597958795FA95D1F74826C6
:1043900059266A267B26840C951CA61CB71CCF5F69
:1043A000DE4FA881B981C150D140DC968D929D929B
:1043B000AD92BC92DF970A171B0709F04ACFD101D3
:1043C0004D905D906D907C901397C95EDE4F488252
:1043D00059826A827B82C751D14014964D905D907C
:1043E0006D907C901797C55EDE4F488259826A8235
:1043F0007B82CB51D14018964D905D906D907C9012
:104400001B97C15EDE4F488259826A827B82CF5100
:10441000D1401C964D905D906D907C901F97CD5D26
:10442000DE4F488259826A827B82C352D1405096C5
:104430004D905D906D907C905397C95DDE4F4882A2
:1044400059826A827B82C752D14054964D905D90CA
:104450006D907C905797C55DDE4F488259826A8285
:104460007B82CB52D14058964D905D906D907C9060
:104470005B97C15DDE4F488259826A827B82CF5250
:10448000D1405C964D905D906D907C905F97CD5C37
:10449000DE4F488259826A827B82C353D140E4E274
:1044A000F1E0C15CDE4FF983E883CF53D140CF5FA9
:1044B000DE4F488259826A827B82C150D140C15D01
:1044C000DE4F488059806A807B80CF52D140CF5EDA
:1044D000DE4F488259826A827B82C151D140C55DDC
:1044E000DE4F688079808A809B80CB52D140C35F49
:1044F000DE4F688279828A829B82CD50D140C95D2D
:10450000DE4F88819981AA81BB81C752D140CD5DA0
:10451000DE4F88809980AA80BB80C352D140C95C9D
:10452000DE4F88829982AA82BB82C753D140C15E86
:10453000DE4FA880B980CA80DB80CF51D140C75FF1
:10454000DE4FA882B982CA82DB82C950D140C55EE3
:10455000DE4FC880D980EA80FB80CB51D140CB5F51
:10456000DE4FC882D982EA82FB82C550D140C95E43
:10457000DE4F488159816A817B81C751D140C15C3E
:10458000DE4FE881F981CF53D140619071908190E5
:104590009190C15CDE4FF983E883CF53D140C55C75
:1045A000DE4F688279828A829B82CB53D140CB5E78
:1045B000DE4FE881F981C551D140019111912191DE
:1045C0003191CB5EDE4FF983E883C551D1404C0178
:1045D0005D01EAE1880C991CAA1CBB1CEA95D1F785
:1045E0006C017D01F6E0F694E794D794C794FA95B0
:1045F000D1F7C828D928EA28FB282C013D01E5E19C
:10460000440C551C661C771CEA95D1F74C015D01E2
:10461000FBE0B694A79497948794FA95D1F78428F1
:104620009528A628B7288C249D24AE24BF246C018D
:104630007D01E9E1F694E794D794C794EA95D1F720
:104640002C013D01F7E0440C551C661C771CFA95C3
:10465000D1F7C428D528E628F728C824D924EA2485
:10466000FB24C55CDE4F488059806A807B80CB5339
:10467000D140040D151D261D371D46015701800E22
:10468000911EA21EB31E2C013D01409450946094D3
:104690007094CF5EDE4FC880D980EA80FB80C15124
:1046A000D1404C205D206E207F20C35FDE4F08810B
:1046B00019812A813B81CD50D140082319232A2317
:1046C0003B230425152526253725080D191D2A1DF0
:1046D0003B1DCF5FDE4F488059806A807B80C15090
:1046E000D140040D151D261D371D2A013B01EEE1A9
:1046F000440C551C661C771CEA95D1F76A017B01B6
:10470000F2E0F694E794D794C794FA95D1F7C428C9
:10471000D528E628F7284A015B01E3E1880C991CBB
:10472000AA1CBB1CEA95D1F72A013B01FDE0769457
:10473000679457944794FA95D1F7482859286A28DE
:104740007B284C245D246E247F244A015B01E6E132
:10475000B694A79497948794EA95D1F76A017B0160
:10476000FAE0CC0CDD1CEE1CFF1CFA95D1F7C82832
:10477000D928EA28FB284601570184249524A62439
:10478000B724CF5FDE4F88829982AA82BB82C15054
:10479000D140C75FDE4F88809980AA80BB80C95016
:1047A000D140CB5FDE4FC880D980EA80FB80C55006
:1047B000D1408C249D24AE24BF2484229522A6229D
:1047C000B72226013701C75FDE4FC880D980EA8053
:1047D000FB80C950D1404C205D206E207F204824B2
:1047E00059246A247B24CF5FDE4FC880D980EA80B9
:1047F000FB80C150D140C40CD51CE61CF71CC95C21
:10480000DE4F88809980AA80BB80C753D140800E3C
:10481000911EA21EB31EC00ED11EE21EF31EC75F64
:10482000DE4F088119812A813B81C950D140C95C82
:10483000DE4F088319832A833B83C753D140CF5E61
:10484000DE4F488059806A807B80C151D140CF5F64
:10485000DE4F488259826A827B82C150D14014E285
:10486000612E12E0712EC15CDE4F08811981CF5399
:10487000D14060167106A9F1C35FDE4F088119812E
:104880002A813B81CD50D140CF5EDE4F0883198312
:104890002A833B83C151D140C35FDE4F8883998314
:1048A000AA83BB83CD50D140D501C401CB5FDE4F7D
:1048B000488059806A807B80C550D140C75FDE4FF9
:1048C000488259826A827B82C950D140CB5FDE4FD9
:1048D000488359836A837B83C550D140B701A601C1
:1048E0004ECEC95EDE4F488059806A807B80C751BA
:1048F000D140C40CD51CE61CF71CF101C082D1824A
:10490000E282F382C55EDE4F488059806A807B80F8
:10491000CB51D140440D551D661D771D44835583F1
:1049200066837783C15EDE4F488159816A817B81CE
:10493000CF51D140CB5FDE4F488059806A807B8069
:10494000C550D140440D551D661D771D40875187C8
:1049500062877387CD5DDE4F488159816A817B8193
:10496000C352D140C75FDE4F488059806A807B8048
:10497000C950D140440D551D661D771D448755878C
:1049800066877787C95DDE4F488159816A817B815F
:10499000C752D140480D591D6A1D7B1D408B518B5C
:1049A000628B738BC55DDE4F488059806A807B8047
:1049B000CB52D140840D951DA61DB71D848B958BC0
:1049C000A68BB78BC15DDE4F88819981AA81BB819F
:1049D000CF52D140C35FDE4F488059806A807B80D0
:1049E000CD50D140840D951DA61DB71D808F918F90
:1049F000A28FB38FCD5CDE4F88819981AA81BB8164
:104A0000C353D140CF5EDE4F488059806A807B809F
:104A1000C151D140840D951DA61DB71D848F958F62
:104A2000A68FB78F11A610A6C05CDE4F0FB6F89404
:104A3000DEBF0FBECDBFDF91CF911F910F91FF90D1
:104A4000EF90DF90CF90BF90AF909F908F907F902E
:104A50006F905F904F903F902F900895FC01892BAD
:104A600009F476C014A215A216A217A210A211A2D0
:104A700012A213A211A610A680910001909101012B
:104A8000A0910201B091030180839183A283B3833B
:104A90008091040190910501A0910601B091070158
:104AA00084839583A683B78380910801909109013F
:104AB000A0910A01B0910B0180879187A287B387EB
:104AC00080910C0190910D01A0910E01B0910F0108
:104AD00084879587A687B7878091100190911101EF
:104AE000A0911201B0911301808B918BA28BB38B9B
:104AF0008091140190911501A0911601B0911701B8
:104B0000848B958BA68BB78B80911801909119019E
:104B1000A0911A01B0911B01808F918FA28FB38F4A
:104B200080911C0190911D01A0911E01B0911F0167
:104B3000848F958FA68FB78FDF01A659BF4F1D9227
:104B40001C92E459FF4F1182108280E090E008959A
:104B500081E090E00895CF92DF92EF92FF920F9361
:104B60001F93CF93DF93009709F472C0411551054D
:104B700009F46BC06115710509F46AC0FC01E659BE
:104B8000FF4F2081318132966F01232B39F083E072
:104B900090E09183808323E030E05CC0208131810C
:104BA0002115310509F056C0EC018B017B01E40EA3
:104BB000F51E0E151F0509F444C088A599A59C0192
:104BC0002F5F3F4F39A728A7F80121918F01FE01E0
:104BD000E80FF91F22A74CA15DA16EA17FA1DB0107
:104BE000CA010896A11DB11D8CA39DA3AEA3BFA3AE
:104BF00084179507A607B70720F0F60180819181F9
:104C000011C088A199A1AAA1BBA10196A11DB11DA6
:104C100088A399A3AAA3BBA3892B8A2B8B2B69F703
:104C200082E090E0F60191838083892B11F688A5BC
:104C300099A58034910509F0BCCFCE010E94D72000
:104C4000B8CFF6012081318105C020E030E002C0FC
:104C500021E030E0C901DF91CF911F910F91FF90CA
:104C6000EF90DF90CF900895CF92DF92EF92FF9276
:104C70000F931F93CF93DF93009709F49DC06115A5
:104C8000710509F499C0FC01E459FF4FE080F180FF
:104C9000E114F10409F093C08B01EC016C018AE688
:104CA000C80ED11CF60180819181892B09F062C068
:104CB00088A599A59C012F5F3F4FFE01E80FF91FC2
:104CC00039A728A7C897ACF080E882A788A599A53E
:104CD0008034910554F49C012F5F3F4F39A728A7DA
:104CE000FE01E80FF91F12A6F1CFCE010E94D720D6
:104CF00002C080E882A788A599A58833910554F45D
:104D00009C012F5F3F4F39A728A7FE01E80FF91F2D
:104D100012A6F1CF88A199A12AA13BA1FE01EE59CB
:104D2000FF4F308331962083319690833196808374
:104D30008CA19DA12EA13FA1319630833196208375
:104D40003196908331968083CE010E94D720FE0158
:104D5000BA961192CE16DF06E1F718A219A21AA28E
:104D60001BA21CA21DA21EA21FA281E090E0F601C0
:104D700091838083F80180E090E0DC01AC7FAC0F90
:104D8000BD1F9C01209530952370332743E0220FEF
:104D9000331F4A95E1F74D915D916D917C9104C06F
:104DA00076956795579547952A95D2F74193019641
:104DB0008032910511F703C0EE24E394F12CC70172
:104DC000DF91CF911F910F91FF90EF90DF90CF90E7
:104DD00008950F931F93072F182F292F3327009320
:104DE000C5006093C40082E08093C00086E0809399
:104DF000C20088E18093C1001F910F9108959091A6
:104E0000C00095FFFCCF8093C60008958091C0003C
:104E100087FFFCCF8091C6000895CF93282F22955D
:104E20002F70982F9F702A3010F480E301C087E321
:104E3000820F9A3010F4C0E301C0C7E3C90F0E948B
:104E4000FF268C2FCF910C94FF26CF93DF93EC019C
:104E50008991882319F00E94FF26FACFDF91CF9124
:104E600008950F931F93CF93DF93EC018C01060FEE
:104E7000171FC017D10721F089910E940D27F9CF84
:104E80008AE00E94FF268DE0DF91CF911F910F9164
:104E90000C94FF264F925F926F927F928F929F9217
:104EA000AF92BF92CF92DF92EF92FF920F931F9338
:104EB000CF93DF9300D01F92CDB7DEB72C017B01DB
:104EC0006DB67EB65B01AA0CBB1C8DB79EB78A1966
:104ED0009B090FB6F8949EBF0FBE8DBF0DB71EB7CE
:104EE0000F5F1F4FC12CD12C98EB892E93E0992E88
:104EF000CA14DB04B9F00E9406271F928F939F9279
:104F00008F92C8018C0D9D1D9F938F930E945136E7
:104F10009FEFC91AD90A0F900F900F900F900F9022
:104F20000F90E6CF6201E40CF51CCE14DF04A1F073
:104F3000F8018081898381818A831B8240E150E06E
:104F400060E070E0CE0101960E942235F601619387
:104F50006F010E5F1F4FE9CF0FB6F8947EBE0FBEF4
:104F60006DBE0F900F900F90DF91CF911F910F9119
:104F7000FF90EF90DF90CF90BF90AF909F908F9079
:104F80007F906F905F904F900895009731F0FC01F3
:104F900061937193CF010C942E2581E090E00895E8
:104FA000009719F002960C94AB2581E090E00895EB
:104FB000009719F002960C94342681E090E0089551
:104FC00080E490E0089580E290E0089580E091E030
:104FD00008958BEB93E00895CF92DF92EF92FF92CA
:104FE0000F931F93CF93DF938C017B01EC01C12CB6
:104FF000DD24D394CE01801B910B8E159F053CF4CC
:105000000E941235B6010E949E348993F3CFDF913E
:10501000CF911F910F91FF90EF90DF90CF90089567
:10502000AF92BF92CF92DF92EF92FF920F931F93B6
:10503000CF93DF93CDB7DEB76F970FB6F894DEBF8F
:105040000FBECDBF7B016E0121E1C20ED11C2FE04E
:10505000F60111922A95E9F7FC018081B60190E0F2
:105060000E94502A8701E12CF12CFE0131965F014C
:1050700011921192CE16DF06D9F747E050E0B50144
:10508000C7010E94862A48E050E0B501C6010E948F
:10509000AA2A90E0F801819391938F01FFEFEF1A14
:1050A000FF0A20E8E216F10401F76F960FB6F894B4
:1050B000DEBF0FBECDBFDF91CF911F910F91FF904B
:1050C000EF90DF90CF90BF90AF9008952F923F92D6
:1050D0004F925F926F927F928F929F92AF92BF9208
:1050E000CF92DF92EF92FF920F931F93CF93DF93B4
:1050F0005C0181E090E0D5018D939C93F7E08F2EC9
:10510000912C22E030E066246394712CC9019695BD
:105110008795AC01440F551F44245524441A550A61
:1051200060E070E0A0E0B0E0FA01E61BF70B6F0171
:10513000CA0CDB1C7201E61AF70AEC01C217D3078E
:1051400070F48601060F171F0E0D1F1DF801008158
:105150001181F601019311936F012196EFCF119602
:105160007A958A179B0701F71501182F0027C0E0D1
:10517000D0E0F101BC016217730760F4C080D180F8
:105180007F01E00EF11ED701CD92DC926F5F7F4F61
:10519000F395F1CF2196B2E02B0E311C8C179D07B1
:1051A00041F7040F151FC0E0C89F7001C99FF00CA4
:1051B000F81A1124DC0140E050E0A217B30748F5CB
:1051C000FA01E00FF11FEA0DFB1D6701C41AD50AB1
:1051D0001A01240C351CBC0162177307B8F4EF01E7
:1051E000CC0DDD1DC20DD31D0990D881C02DD183FA
:1051F000C083219729F4CFEFDFEFD183C08302C0B2
:10520000718260826F5F7F4F3296E6CF1196539521
:10521000D4CF220F331FD1E08D1A910809F076CF39
:10522000DF91CF911F910F91FF90EF90DF90CF9082
:10523000BF90AF909F908F907F906F905F904F90B6
:105240003F902F9008958F929F92AF92BF92CF92EE
:10525000DF92EF92FF920F931F93CF93DF93FA01A8
:10526000DC0180E090E08217930739F111961C92DF
:105270001E924B017F0140E050E0E401A990B990FB
:105280004E01E701C990D9907E01AC9C8001AD9C94
:10529000100DBC9C100D1124CD90DC9011970C0DBD
:1052A0001D1D11961C930E934F5F5F4F42175307BE
:1052B00021F70196F3951296D6CFDF91CF911F91EA
:1052C0000F91FF90EF90DF90CF90BF90AF909F90A5
:1052D0008F900895BF92CF92DF92EF92FF920F933B
:1052E0001F93CF93DF93B62EDC0120E030E024172C
:1052F000350709F446C011961C921E92CB2DD72F6C
:1053000080E090E07901E4E0EE0CFF1CEA95E1F723
:1053100009911991FC0163E0F695E7956A95E1F72B
:10532000EE0DFF1DE856FE4CE491F0E06C01C094D8
:10533000D09467E0C622DD2402C0F595E795CA94B3
:10534000E2F7E0FF04C0CC24C394D12C03C0CC24EA
:10535000CA94DC2CC09EF001C19EF00DD09EF00DD1
:1053600011240D911C911197E00FF11F1196FC93E0
:10537000EE9301964817590759F62F5F3F4F129643
:10538000B6CFDF91CF911F910F91FF90EF90DF90FB
:10539000CF90BF90089520E030E04FEF5FEF2617E9
:1053A000370761F0DC01ED91FC911197EF2B11F4BF
:1053B0004D935C932F5F3F4F0296F1CF0895CF92AC
:1053C000DF92EF92FF920F931F93CF93DF93CDB7AE
:1053D000DEB7C251D1400FB6F894DEBF0FBECDBFCD
:1053E0008C017B0160E870E00E94CB29CF5EDE4F2C
:1053F00019821882C151D14040E850E0B801CE0175
:1054000001960E946A2920E830E0AE01415F5E4FBC
:10541000BE016F5E7E4FCE0101960E94C12A8E01B1
:105420000F5F1E4F68018EE0C80ED11CF80111926B
:105430001192EC15FD05D9F747E050E0B801C15FC6
:10544000DE4F88819981CF50D1400E94692AF701AF
:105450003196D8018C910E5F1F4F8193C016D106F3
:10546000C1F7CF5EDE4F88819981C151D1401816B6
:10547000190624F481E0F701808302C0D7011C9251
:10548000CE5EDE4F0FB6F894DEBF0FBECDBFDF910C
:10549000CF911F910F91FF90EF90DF90CF900895E3
:1054A000CF93DF93DC01FB01389620E830E091E0F8
:1054B000AD0142235323452B09F490E0EB0199936E
:1054C000BE0135952795CE17DF0789F7DF91CF917C
:1054D0000895CF93DF939C01440F551FFB01E40F08
:1054E000F51FC2E0D0E02115310569F0C901BE0108
:1054F0000E949E349293829337FF02C02F5F3F4FEA
:1055000035952795F0CFDF91CF910895FB0121E0EC
:1055100030E021933193BF010C94692ACF93DF933C
:10552000DB01509620E830E090E0E1E0F0E0AC01F3
:1055300042235323452B11F4E0E0F0E0EB01E99323
:10554000F993BE0135952795CA17DB0771F7DF91EF
:10555000CF910895CF93DF93EC01FB01DC0190E044
:105560009D012C1B3D0B2417350734F48D912081B0
:1055700032962823920FF4CF892F8170DF91CF913B
:105580000895EF92FF920F931F93CF93DF93E12C37
:10559000F12CE216F30604F5EC01A991B991CE01C4
:1055A0008D01B7FF04C0002711270A1B1B0BFB014D
:1055B000C081D181D7FF03C0D195C195D109C01752
:1055C000D10734F4EB01B983A883FA01F182E082B8
:1055D000FFEFEF1AFF0ADDCFDF91CF911F910F91FF
:1055E000FF90EF900895FC01808140E8849F900136
:1055F0001124918140E4949FC0011124822B932BAC
:105600002781822B228140E2249F90011124282BA4
:10561000392B438180E1489FA0011124242B352B95
:10562000448198E0499FA0011124242B352B45810A
:1056300084E0489FA0011124242B352B8681880FFC
:10564000822B0895FC0127E030E080E061917191A8
:1056500041E050E06130710511F040E050E0022E71
:1056600001C0440F0A94EAF7842B2150310970F7E6
:1056700008958F929F92AF92BF92CF92DF92EF9256
:10568000FF920F931F93CF93DF93CDB7DEB7609751
:105690000FB6F894DEBF0FBECDBF6C01962E872EDD
:1056A000CE0101967C0180E1F70111928A95E9F71C
:1056B000E62FF72FD70180E08D9381938F5F8031A4
:1056C000D9F700E010E05E01F1E1AF0EB11CB601C8
:1056D000600F711F892D982D0E94922BD701E92D03
:1056E000F82D9C918081892781938D93AA15BB0504
:1056F000C1F7005F1F4F003381E0180741F7609644
:105700000FB6F894DEBF0FBECDBFDF91CF911F91D2
:105710000F91FF90EF90DF90CF90BF90AF909F9050
:105720008F9008953F924F925F926F927F928F92E7
:105730009F92AF92BF92CF92DF92EF92FF920F9320
:105740001F93DC014D905D906D907D908D909D90AC
:10575000AD90BD90CD90DD90ED90FD900D911D919F
:105760002D913C91FB013190432431905324319091
:1057700063243190732431908324319093243190A9
:10578000A3243190B3243190C3243190D324319099
:10579000E3243190F3243190032531901325319087
:1057A000232530803325A60167017A018C249D24AE
:1057B000AE24BF24482D892C9A2CAB2CB42E880CF7
:1057C000991CAA1CBB1C811CC818D908EA08FB0834
:1057D0000425152526253725A80189019A01000FE2
:1057E000111F221F331F011D000F111F221F331F06
:1057F000011D000F111F221F331F011D401A510AE6
:10580000620A730A0C251D252E253F25402F012FE6
:10581000122F232F342FC01AD10AE20AF30AA20151
:1058200023013A0184249524A624B724482D892CE9
:105830009A2CAB2CB42E880C991CAA1CBB1C811C66
:10584000880C991CAA1CBB1C811C880C991CAA1CC6
:10585000BB1C811C481859086A087B08A60167010F
:105860007A018C249D24AE24BF24482D892C9A2CA7
:10587000AB2CB42E880C991CAA1CBB1C811CC8180C
:10588000D908EA08FB080425152526253725A8018F
:1058900089019A01000F111F221F331F011D000FE4
:1058A000111F221F331F011D000F111F221F331F45
:1058B000011D401A510A620A730A0C251D252E2566
:1058C0003F25402F012F122F232F342FC01AD10A2A
:1058D000E20AF30AA20123013A0184249524A624B2
:1058E000B724482D892C9A2CAB2CB42E880C991CEB
:1058F000AA1CBB1C811C880C991CAA1CBB1C811CEB
:10590000880C991CAA1CBB1C811C481859086A08E1
:105910007B08A60167017A018C249D24AE24BF2454
:10592000482D892C9A2CAB2CB42E880C991CAA1CBF
:10593000BB1C811CC818D908EA08FB0804251525DA
:1059400026253725A80189019A01000F111F221F62
:10595000331F011D000F111F221F331F011D000FD8
:10596000111F221F331F011D401A510A620A730AB8
:105970000C251D252E253F25402F012F122F232FCB
:10598000342FC01AD10AE20AF30AA20123013A0114
:1059900084249524A624B724482D892C9A2CAB2C3A
:1059A000B42E880C991CAA1CBB1C811C880C991C49
:1059B000AA1CBB1C811C880C991CAA1CBB1C811C2A
:1059C000481859086A087B08A60167017A018C24E7
:1059D0009D24AE24BF24482D892C9A2CAB2CB42EA8
:1059E000880C991CAA1CBB1C811CC818D908EA0881
:1059F000FB080425152526253725A80189019A01CC
:105A0000000F111F221F331F011D000F111F221F26
:105A1000331F011D000F111F221F331F011D401ACC
:105A2000510A620A730A0C251D252E253F25402F99
:105A3000012F122F232F342FC01AD10AE20AF30AA2
:105A4000A20123013A0184249524A624B724482DD9
:105A5000892C9A2CAB2CB42E880C991CAA1CBB1C2C
:105A6000811C880C991CAA1CBB1C811C880C991CCD
:105A7000AA1CBB1C811C481859086A087B08A6018F
:105A800067017A018C249D24AE24BF24482D892CE3
:105A90009A2CAB2CB42E880C991CAA1CBB1C811C04
:105AA000C818D908EA08FB08042515252625372536
:105AB000A80189019A01000F111F221F331F011D28
:105AC000000F111F221F331F011D000F111F221F66
:105AD000331F011D401A510A620A730A0C251D2545
:105AE0002E253F25402F012F122F232F342FC01A90
:105AF000D10AE20AF30AA20123013A01842495247F
:105B0000A624B724482D892C9A2CAB2CB42E880CB3
:105B1000991CAA1CBB1C811C880C991CAA1CBB1CB0
:105B2000811C880C991CAA1CBB1C811C4818590894
:105B30006A087B08A60167017A018C249D24AE24A3
:105B4000BF24482D892C9A2CAB2CB42E880C991C80
:105B5000AA1CBB1C811CC818D908EA08FB0804252C
:105B6000152526253725A80189019A01000F111F47
:105B7000221F331F011D000F111F221F331F011D84
:105B8000000F111F221F331F011D401A510A620A04
:105B9000730A0C251D252E253F25402F012F122F7E
:105BA000232F342FC01AD10AE20AF30AA2012301DB
:105BB0003A0184249524A624B724482D892C9A2CB4
:105BC000AB2CB42E880C991CAA1CBB1C811C880C05
:105BD000991CAA1CBB1C811C880C991CAA1CBB1CF0
:105BE000811C481859086A087B08A60167017A01D8
:105BF0008C249D24AE24BF24482D892C9A2CAB2CB8
:105C0000B42E880C991CAA1CBB1C811CC818D9086E
:105C1000EA08FB080425152526253725A801890152
:105C20009A01000F111F221F331F011D000F111FAA
:105C3000221F331F011D000F111F221F331F011DC3
:105C4000401A510A620A730A0C251D252E253F258C
:105C5000402F012F122F232F342FC01AD10AE20A0E
:105C6000F30AA20123013A0184249524A624B7242F
:105C7000482D892C9A2CAB2CB42E880C991CAA1C6C
:105C8000BB1C811C880C991CAA1CBB1C811C880C89
:105C9000991CAA1CBB1C811C481859086A087B085F
:105CA000A60167017A018C249D24AE24BF24482DCF
:105CB000892C9A2CAB2CB42E880C991CAA1CBB1CCA
:105CC000811CC818D908EA08FB08042515252625D3
:105CD0003725A80189019A01000F111F221F331FC8
:105CE000011D000F111F221F331F011D000F111F67
:105CF000221F331F011D401A510A620A730A0C2524
:105D00001D252E253F25402F012F122F232F342F05
:105D1000C01AD10AE20AF30AA20123013A0184243B
:105D20009524A624B724482D892C9A2CAB2CB42E6C
:105D3000880C991CAA1CBB1C811C880C991CAA1CD1
:105D4000BB1C811C880C991CAA1CBB1C811C4818FC
:105D500059086A087B083325329023253290132591
:105D6000329003253290F3243290E3243290D324EE
:105D70003290C3243290B3243290A32432909324DF
:105D800032908324329073243290632432905324CF
:105D9000329043243C932E931E930E93FE92EE92E8
:105DA000DE92CE92BE92AE929E928E927E926E9233
:105DB0005E924E921F910F91FF90EF90DF90CF90E7
:105DC000BF90AF909F908F907F906F905F904F901B
:105DD0003F9008952F923F924F925F926F927F92E1
:105DE0008F929F92AF92BF92CF92DF92EF92FF92EB
:105DF0000F931F93DC012D903D904D905D906D9021
:105E00007D908D909D90AD90BD90CD90DD90ED906A
:105E1000FD900D911C91FB012191222621913226AA
:105E200021914226219152262191622621917226AA
:105E300021918226219192262191A2262191B2269A
:105E40002191C2262191D2262191E2262191F2268A
:105E50002191022720811227260C371C481C591C2F
:105E60001F9240E2572D392D649E3001849E4001DF
:105E7000549F70248124349F902461241F906224B5
:105E8000732484249524A20121011A01AE0CBF1CA5
:105E9000C01ED11E412F102F0F2DFE2CE42EEA2400
:105EA000FB240C251D252E0C3F1C401E511EA80155
:105EB00087017A01E0FA17950795F794E79417F9A7
:105EC000E0FA17950795F794E79417F9E0FA179514
:105ED0000795F794E79417F9E224F3240425152590
:105EE000A60CB71CC81CD91C492D982C872C762CC5
:105EF000642E60FA979487947794679497F86A244D
:105F00007B248C249D24A60165015A01260C371C94
:105F1000481C591C1F9240E2572D392D649E3001B8
:105F2000849E4001549F70248124349F90246124D6
:105F30001F906224732484249524A20121011A0154
:105F4000AE0CBF1CC01ED11E412F102F0F2DFE2CDA
:105F5000E42EEA24FB240C251D252E0C3F1C401E9C
:105F6000511EA80187017A01E0FA17950795F79469
:105F7000E79417F9E0FA17950795F794E79417F95E
:105F8000E0FA17950795F794E79417F9E224F324BC
:105F900004251525A60CB71CC81CD91C492D982C06
:105FA000872C762C642E60FA979487947794679464
:105FB00097F86A247B248C249D24A60165015A014C
:105FC000260C371C481C591C1F9240E2572D392DB6
:105FD000649E3001849E4001549F70248124349F2C
:105FE000902461241F906224732484249524A201A8
:105FF00021011A01AE0CBF1CC01ED11E412F102F53
:106000000F2DFE2CE42EEA24FB240C251D252E0C3E
:106010003F1C401E511EA80187017A01E0FA179526
:106020000795F794E79417F9E0FA17950795F79411
:10603000E79417F9E0FA17950795F794E79417F99D
:10604000E224F32404251525A60CB71CC81CD91C72
:10605000492D982C872C762C642E60FA979487947F
:106060007794679497F86A247B248C249D24A60156
:1060700065015A01260C371C481C591C1F9240E22E
:10608000572D392D649E3001849E4001549F702409
:106090008124349F902461241F90622473248424DB
:1060A0009524A20121011A01AE0CBF1CC01ED11EF5
:1060B000412F102F0F2DFE2CE42EEA24FB240C255B
:1060C0001D252E0C3F1C401E511EA80187017A0180
:1060D000E0FA17950795F794E79417F9E0FA179502
:1060E0000795F794E79417F9E0FA17950795F79451
:1060F000E79417F9E224F32404251525A60CB71C10
:10610000C81CD91C492D982C872C762C642E60FA3B
:10611000979487947794679497F86A247B248C24C7
:106120009D24A60165015A01260C371C481C591CE8
:106130001F9240E2572D392D649E3001849E40010C
:10614000549F70248124349F902461241F906224E2
:10615000732484249524A20121011A01AE0CBF1CD2
:10616000C01ED11E412F102F0F2DFE2CE42EEA242D
:10617000FB240C251D252E0C3F1C401E511EA80182
:1061800087017A01E0FA17950795F794E79417F9D4
:10619000E0FA17950795F794E79417F9E0FA179541
:1061A0000795F794E79417F9E224F32404251525BD
:1061B000A60CB71CC81CD91C492D982C872C762CF2
:1061C000642E60FA979487947794679497F86A247A
:1061D0007B248C249D24A60165015A01260C371CC2
:1061E000481C591C1F9240E2572D392D649E3001E6
:1061F000849E4001549F70248124349F9024612404
:106200001F906224732484249524A20121011A0181
:10621000AE0CBF1CC01ED11E412F102F0F2DFE2C07
:10622000E42EEA24FB240C251D252E0C3F1C401EC9
:10623000511EA80187017A01E0FA17950795F79496
:10624000E79417F9E0FA17950795F794E79417F98B
:10625000E0FA17950795F794E79417F9E224F324E9
:1062600004251525A60CB71CC81CD91C492D982C33
:10627000872C762C642E60FA979487947794679491
:1062800097F86A247B248C249D24A60165015A0179
:10629000260C371C481C591C1F9240E2572D392DE3
:1062A000649E3001849E4001549F70248124349F59
:1062B000902461241F906224732484249524A201D5
:1062C00021011A01AE0CBF1CC01ED11E412F102F80
:1062D0000F2DFE2CE42EEA24FB240C251D252E0C6C
:1062E0003F1C401E511EA80187017A01E0FA179554
:1062F0000795F794E79417F9E0FA17950795F7943F
:10630000E79417F9E0FA17950795F794E79417F9CA
:10631000E224F32404251525A60CB71CC81CD91C9F
:10632000492D982C872C762C642E60FA97948794AC
:106330007794679497F86A247B248C249D24A60183
:1063400065015A01260C371C481C591C1F9240E25B
:10635000572D392D649E3001849E4001549F702436
:106360008124349F902461241F9062247324842408
:106370009524A20121011A01AE0CBF1CC01ED11E22
:10638000412F102F0F2DFE2CE42EEA24FB240C2588
:106390001D252E0C3F1C401E511EA80187017A01AD
:1063A000E0FA17950795F794E79417F9E0FA17952F
:1063B0000795F794E79417F9E0FA17950795F7947E
:1063C000E79417F9E224F32404251525A60CB71C3D
:1063D000C81CD91C492D982C872C762C642E60FA69
:1063E000979487947794679497F86A247B248C24F5
:1063F0009D24A60165015A011227229102272291AC
:10640000F2262291E2262291D2262291C2262291C0
:10641000B2262291A22622919226229182262291B0
:1064200072262291622622915226229142262291A0
:106430003226229122261C930E93FE92EE92DE9239
:10644000CE92BE92AE929E928E927E926E925E920C
:106450004E923E922E921F910F91FF90EF90DF90FF
:10646000CF90BF90AF909F908F907F906F905F90F4
:106470004F903F902F900895FC010FB6F8946091D3
:10648000C4037091C5038091C6039091C7030FBEEA
:10649000309721F0608371838283938308954F92B4
:1064A0005F926F927F928F929F92AF92BF92CF92A4
:1064B000DF92EF92FF920F931F93CF93DF93CDB7AD
:1064C000DEB7C25FD1090FB6F894DEBF0FBECDBFF5
:1064D00080E090E00E943C32CB010E9417352E01F3
:1064E0008DEC480E511C80E1D2011D928A95E9F78E
:1064F000C151DF4F188219821A821B82CF5ED040B1
:1065000081E0CE50DF4F8883C25FD0403E01B9EEBC
:106510006B0E711C86E0F30111928A95E9F70E94D7
:106520000627803729F460E371E088EC93E030C0FF
:106530008B3621F460E170E0C2012AC0863671F426
:106540008EE392E00E942527B20188EC93E00E943E
:1065500040208AE492E00E942527E1CF893651F459
:1065600088E592E00E94252764E070E0CE01815129
:106570009F4F0EC08E3679F466E070E0C3010E9432
:10658000EC278CE592E00E94252766E070E0C301CD
:106590000E943127C4CF883611F680E1882E912CD5
:1065A000CE0183549F4F5C0196E0C92ED12C73011C
:1065B00000E110E0920140E050E060E070E082E035
:1065C00090E00E94481E892B19F084E692E0D4C026
:1065D0008CE792E00E94252760E170E0CE018354B1
:1065E0009F4F0E9431278E0103551F4F80E1D80134
:1065F0001D928A95E9F77E01B3EEEB0EF11C86E061
:10660000F70111928A95E9F782E892E00E94252726
:1066100060E170E0C8010E944A2788E992E00E9488
:10662000252760E170E0C8010E9431278DEA92E0E1
:106630000E94252760E270E0CE0189599F4F0E9499
:106640004A278DEB92E00E94252760E270E0CE01A0
:1066500089599F4F0E943127BE0163547F4FC80163
:106660000E94922B8CEC92E00E94252760E170E062
:10667000C8010E9431276801DE01A151BF4FC80146
:106680000496F801E817F90739F031912D91321786
:10669000C9F38BED92E00FC0D8011A968A179B07B9
:1066A00079F0FC013191CF01F30121913F013217C3
:1066B000A9F386EF92E00E9425278FEF9FEF26C176
:1066C00047013801F0E16F0E711CF701A615B705FF
:1066D00019F08D918193FACF84E193E00E942527F0
:1066E00066E070E0C7010E943127BE0163547F4F0E
:1066F000C8010E94EA2EFE0131965F01C614D7043C
:1067000029F0D6018D916D018193F8CFC201AE01C0
:106710004F5E5F4FDE0191964A175B0739F0FC012F
:106720002191CF01FA012193AF01F6CF3E01F7E2AB
:106730006F0E711CF701A615B70519F081918D93A5
:10674000FACF89E193E00E94252766E270E0C50157
:106750000E943127CE01895B9F4F7C0100E110E050
:10676000920146E250E0B50182E090E00E94F91FFC
:10677000892B39F082E393E00E94252781E090E0A5
:10678000C5C08AE493E00E94252766E270E0CE014E
:10679000895B9F4F0E943127FE01E95BFF4FDE01BD
:1067A000A959BF4F9F01205E3F4F91918D91E217F4
:1067B000F30719F09817C9F305C0981303C086E5CD
:1067C00093E002C086E693E00E9425277E019DEDBE
:1067D000E90EF11C86E0D7011D928A95E9F766E083
:1067E00070E0C7010E94EC278E0103561F4F80E125
:1067F000F80111928A95E9F7C151DF4F8881CF5E88
:10680000D040D8018C93C051DF4F8881C05FD04009
:1068100011968C931197CF50DF4F8881C15FD04084
:1068200012968C931297CE50DF4F8881C25FD04072
:1068300013968C9398012C5F3F4FF8013A962E17D0
:106840003F0739F0D4018D914D01D9018D939D0100
:10685000F6CF5801B0E1AB0EB11CD701EA15FB052C
:1068600019F08D918193FACFBE0163547F4FC80117
:106870000E94EA2E8BE793E00E94252760E170E0FA
:10688000C8010E9431276E01E7E8CE0ED11C86E1D7
:10689000D6011D928A95E9F7F801D601EA15FB05A4
:1068A00019F081918D93FACFF6017096C601469644
:1068B0008E179F0729F0D7012D917D012193F8CFE5
:1068C00089E193E00E94252766E170E0C6010E94FD
:1068D0003127730100E110E09E0123533F4F46E151
:1068E00050E0B60182E090E00E94F91F892B19F078
:1068F00082E993E041CF8BEA93E00E94252760E292
:1069000070E0C3010E94312780E090E0CE50DF4F5D
:106910000FB6F894DEBF0FBECDBFDF91CF911F91B0
:106920000F91FF90EF90DF90CF90BF90AF909F902E
:106930008F907F906F905F904F90089597FB072EF8
:1069400016F4009407D077FD09D00E94B23407FCFA
:1069500005D03EF4909581959F4F0895709561956F
:106960007F4F0895AA1BBB1B51E107C0AA1FBB1F85
:10697000A617B70710F0A61BB70B881F991F5A95CB
:10698000A9F780959095BC01CD0108958F929F92B3
:10699000AF92BF92CF92DF92EF92FF92CF93DF93AD
:1069A000EC01688179818A819B816115710581057E
:1069B000910521F464E279ED8BE597E02DE133EF69
:1069C00041E050E00E94393949015A019B01AC0174
:1069D000A7EAB1E40E9458396B017C01ACEEB4EF38
:1069E000A50194010E946639DC01CB018C0D9D1D2F
:1069F000AE1DBF1DB7FF03C00197A109B048888332
:106A00009983AA83BB839F77DF91CF91FF90EF900B
:106A1000DF90CF90BF90AF909F908F9008950E948D
:106A2000C634089580E291E00E94C6340895A0E043
:106A3000B0E08093200190932101A0932201B093B4
:106A400023010895A0E0B0E0E8E2F5E30C946C398E
:106A50005C016B017A016115710519F0FB019183ED
:106A60008083E114F10429F0C7010297839708F0AD
:106A7000E5C0E5012196F5011081812F90E00E948B
:106A80003836892B11F05E01F4CF1D3229F421969E
:106A9000F501118101E007C01B3221F4E5012296C6
:106AA000F501118100E0E114F10409F1F0E1EF16C4
:106AB000F10429F43FC010E3E114F10421F128E0CE
:106AC000E216F10401F154F4E2E0EE16F10421F5CE
:106AD000812C912CA12CB0E4BB2E3EC0FAE0EF1625
:106AE000F10439F020E1E216F104B1F430C01033C2
:106AF00019F1FAE0EF2EF12CACEC8A2E982CA82C90
:106B0000ACE0BA2E29C078E0E72EF12C812C912C34
:106B1000A12CE0E1BE2E20C060E070E080E090E8B3
:106B200097010F2C000C440B550B0E94173949019B
:106B30005A0112C0103359F488818F7D883509F0CD
:106B4000BACF19812296026080E1E82EF12C812CC7
:106B5000912CA12C68E0B62E40E060E070E0CB0103
:106B600027010F2C000C66087708FE0150ED352E2A
:106B7000310E29E0231570F42FEB210F2A3118F480
:106B800039EC332E06C02FE9210F2A3118F529EAF6
:106B9000322E310E232D30E02E153F05DCF447FD5B
:106BA00016C086169706A806B90670F0A3019201D2
:106BB0000E940739630D711D811D911D61307105A2
:106BC000810520E8920710F04FEF01C041E02196C7
:106BD0001081CBCF202F2170C114D10471F0442338
:106BE00029F02197F601D183C08307C001FF19C0A6
:106BF0002297F601D183C08314C047FF12C022231D
:106C000029F060E070E080E090E804C06FEF7FEF73
:106C10008FEF9FE722E230E03093C3032093C2035B
:106C200009C0222381F090958095709561957F4FE2
:106C30008F4F9F4F462F372F282F12C040E030E054
:106C400020E090E00DC097FFF5CF82E290E09093B6
:106C5000C3038093C2036FEF7FEF8FEF9FE7EACF0D
:106C6000642F732F822FCDB7DEB7E1E10C94883902
:106C700091110C945438803219F089508550C8F71E
:106C80000895FB01DC0102C001900D92415050407B
:106C9000D8F70895DC0101C06D9341505040E0F7F2
:106CA0000895AEE0B0E0E7E5F6E30C9479390D899C
:106CB0001E8986E08C831A8309838FEF9FE79E836A
:106CC0008D83AE01475E5F4F6F89788DCE0101964F
:106CD0000E947336EF81F885E00FF11F10822E9627
:106CE000E4E00C949539ABE0B0E0E9E7F6E30C940E
:106CF0006B396C017B018A01FC011782168283814A
:106D000081FFCCC1CE0101963C01F6019381F701D0
:106D100093FD859193FF81917F01882309F4BAC186
:106D2000853239F493FD859193FF81917F018532FE
:106D300029F4B60190E00E946D38E7CF912C212C08
:106D4000312CFFE1F315D8F08B3279F038F4803232
:106D500079F08332A1F4232D20611DC08D3261F0C2
:106D6000803369F4232D216016C0832D8260382E74
:106D7000E32DE4603E2E2AC0F32DF8601DC037FCE1
:106D80002DC020ED280F2A3040F08E32B9F436FCA9
:106D900081C1232D2064322E19C036FE06C08AE040
:106DA000989E200D1124922E11C0EAE02E9E200DF7
:106DB0001124222EF32DF0623F2E08C08C3621F4D0
:106DC000832D8068382E02C0883641F4F70193FD88
:106DD000859193FF81917F018111B3CF982F9F7D82
:106DE0009554933028F40C5F1F4F9FE399830DC097
:106DF000833631F0833771F0833509F059C021C0F3
:106E0000F801808189830E5F1F4F88248394912C21
:106E1000530113C02801F2E04F0E511CF801A0806D
:106E2000B18036FE03C0692D70E002C06FEF7FEFC6
:106E3000C5010E9462384C018201F32DFF773F2E7D
:106E400016C0280122E0420E511CF801A080B1803A
:106E500036FE03C0692D70E002C06FEF7FEFC50101
:106E60000E9457384C01F32DF0683F2E820133FC0D
:106E70001BC0822D90E088169906B0F4B60180E21E
:106E800090E00E946D382A94F4CFF50137FC85918B
:106E900037FE81915F01B60190E00E946D382110AC
:106EA0002A9421E0821A91088114910471F7E8C0B4
:106EB000843611F0893641F5F80137FE07C060814C
:106EC0007181828193810C5F1F4F08C06081718145
:106ED000072E000C880B990B0E5F1F4FF32DFF76CA
:106EE0003F2E97FF09C090958095709561957F4FD3
:106EF0008F4F9F4FF0683F2E2AE030E0A3010E94A1
:106F0000A938882E861845C0853731F4232D2F7E69
:106F1000B22E2AE030E025C0932D997FB92E8F360E
:106F2000C1F018F4883579F0B5C0803719F088378A
:106F300021F0B0C0E92FE061BE2EB4FE0DC0FB2DE4
:106F4000F460BF2E09C034FE0AC0292F2660B22E7D
:106F500006C028E030E005C020E130E002C020E1BA
:106F600032E0F801B7FE07C06081718182819381B0
:106F70000C5F1F4F06C06081718180E090E00E5F62
:106F80001F4FA3010E94A938882E8618FB2DFF777A
:106F90003F2E36FE0DC0232D2E7FA22E891458F4CD
:106FA00034FE0BC032FC09C0832D8E7EA82E05C096
:106FB000B82CA32C03C0B82C01C0B92CA4FE0FC060
:106FC000FE01E80DF11D8081803321F49A2D997E18
:106FD000A92E09C0A2FE06C0B394B39404C08A2DA2
:106FE000867809F0B394A3FC11C0A0FE06C0B214C9
:106FF00088F4280C922C9B180EC0B21460F4B601D1
:1070000080E290E00E946D38B394F7CFB21418F488
:107010002B1802C0982C212CA4FE10C0B60180E3CE
:1070200090E00E946D38A2FE17C0A1FC03C088E763
:1070300090E002C088E590E0B6010CC08A2D867809
:1070400059F0A1FE02C08BE201C080E2A7FC8DE2F4
:10705000B60190E00E946D38891438F4B60180E3DF
:1070600090E00E946D389A94F7CF8A94F301E80D6E
:10707000F11D8081B60190E00E946D388110F5CF3E
:10708000222009F442CEB60180E290E00E946D38E1
:107090002A94F6CFF6018681978102C08FEF9FEF89
:1070A0002B96E2E10C948739992788270895FC01F3
:1070B0000590615070400110D8F7809590958E0F23
:1070C0009F1F0895FC016150704001900110D8F796
:1070D000809590958E0F9F1F08950F931F93CF93C8
:1070E000DF93FB01238121FD03C08FEF9FEF2CC0B5
:1070F00022FF16C0468157812481358142175307EC
:1071000044F4A081B1819D012F5F3F4F31832083E3
:107110008C93268137812F5F3F4F3783268314C09E
:107120008B01EC01FB010084F185E02D0995892B91
:10713000E1F6D80116968D919C91179701961796B6
:107140009C938E931697CE01DF91CF911F910F9153
:107150000895FA01AA27283051F1203181F1E894ED
:107160006F936E7F6E5F7F4F8F4F9F4FAF4FB1E03A
:107170003ED0B4E03CD0670F781F891F9A1FA11D35
:10718000680F791F8A1F911DA11D6A0F711D811D36
:10719000911DA11D20D009F468943F912AE0269FFB
:1071A00011243019305D3193DEF6CF010895462F5A
:1071B0004770405D4193B3E00FD0C9F7F6CF462F3B
:1071C0004F70405D4A3318F0495D31FD40524193A4
:1071D00002D0A9F7EACFB4E0A69597958795779561
:1071E0006795BA95C9F700976105710508959B01E8
:1071F000AC010A2E06945795479537952795BA9571
:10720000C9F7620F731F841F951FA01D0895DB012E
:107210008F939F930E945839BF91AF91A29F800D89
:10722000911DA39F900DB29F900D11240895A1E28E
:107230001A2EAA1BBB1BFD010DC0AA1FBB1FEE1FF0
:10724000FF1FA217B307E407F50720F0A21BB30B3B
:10725000E40BF50B661F771F881F991F1A9469F7B7
:1072600060957095809590959B01AC01BD01CF0113
:107270000895052E97FB1EF400940E94503957FD87
:1072800007D00E94173907FC03D04EF40C945039F4
:1072900050954095309521953F4F4F4F5F4F089542
:1072A00090958095709561957F4F8F4F9F4F089572
:1072B0000E94A239A59F900DB49F900DA49F800DB0
:1072C000911D11240895B7FF0C9458390E94583924
:1072D000821B930B08952F923F924F925F926F9271
:1072E0007F928F929F92AF92BF92CF92DF92EF9256
:1072F000FF920F931F93CF93DF93CDB7DEB7CA1BD7
:10730000DB0B0FB6F894DEBF0FBECDBF09942A8801
:10731000398848885F846E847D848C849B84AA84A9
:10732000B984C884DF80EE80FD800C811B81AA8136
:10733000B981CE0FD11D0FB6F894DEBF0FBECDBF01
:10734000ED010895A29FB001B39FC001A39F700DEE
:10735000811D1124911DB29F700D811D1124911D5D
:067360000895F894FFCF30
:0273660001081C
:1073680067E6096A85AE67BB72F36E3C3AF54FA5CE
:107378007F520E518C68059BABD9831F19CDE05BFA
:1073880001000000982F8A4291443771CFFBC0B5A5
:10739800A5DBB5E95BC25639F111F159A4823F92D8
:1073A800D55E1CAB98AA07D8015B8312BE85312431
:1073B800C37D0C55745DBE72FEB1DE80A706DC9BF2
:1073C80074F19BC1C1699BE48647BEEFC69DC10F9E
:1073D800CCA10C246F2CE92DAA84744ADCA9B05CDA
:1073E800DA88F97652513E986DC631A8C82703B09D
:1073F800C77F59BFF30BE0C64791A7D55163CA06AB
:1074080067292914850AB72738211B2EFC6D2C4DB6
:10741800130D385354730A65BB0A6A762EC9C281A4
:10742800852C7292A1E8BFA24B661AA8708B4BC23A
:10743800A3516CC719E892D1240699D685350EF464
:1074480070A06A1016C1A419086C371E4C7748271B
:10745800B5BCB034B30C1C394AAAD84E4FCA9C5B91
:10746800F36F2E68EE828F746F63A5781478C884E2
:107478000802C78CFAFFBE90EB6C50A4F7A3F9BEC4
:10748800F27871C670756620696E6974303A0A0DB3
:107498000070756620696E6974313A0A0D0065736B
:1074A8006567756F2046450A0D0066696E6520643C
:1074B800656C2046450A0D0049443A004E696E69DC
:1074C800743A2000484B4446206661696C65642024
:1074D80077697468206572726F720A0050524B3A6D
:1074E8002000496E73657269736369206D657373F3
:1074F800616767696F200A004D6573736167676923
:107508006F20696E73657269746F3A2000496E73F3
:10751800657269736369204D61633A0A004D61635E
:1075280020696E73657269746F3A200044656372EE
:107538006970746564206D613A20004572726F72DB
:1075480065204944206E6F6E20636F727269737094
:107558006F6E64650A004572726F7265204E696EBF
:107568006974206E6F6E20636F72726973706F6ECC
:1075780064650A004E733A20004D6573736167674E
:10758800696F207072696D612064656C206D61633C
:107598000A00484D4143206661696C65642077693B
:1075A8007468206572726F720A0044696765737443
:1075B800206D61630A004D616320766572696669B2
:1075C8006361746F0A004D6163206E6F6E20617590
:1075D80074656E74696361746F0A004D65737361D5
:1075E8006767696F206D73206369667261746F3AAB
:1075F8002000484D4143206661696C6564207769C5
:107608007468206572726F72200A00446967657336
:107618007433206D61630A00256300534841323595
:0276280036002A
:0400000300003000C9
:00000001FF
