:100000000C9434000C943E000C943E000C943E0082
:100010000C943E000C943E000C943E000C943E0068
:100020000C943E000C943E000C943E000C943E0058
:100030000C943E000C943E000C943E000C943E0048
:100040000C943E000C943E000C943E000C943E0038
:100050000C943E000C943E000C943E000C943E0028
:100060000C943E000C943E0011241FBECFEFD8E04C
:10007000DEBFCDBF0E9440000C94B6000C9400007F
:10008000CF93DF931F92CDB7DEB7198260E170E0A6
:1000900080E090E00E9457000E94A400898389813B
:1000A0008823D1F389810E9489001982F5CFCF93EB
:1000B000DF9300D000D0CDB7DEB769837A838B831E
:1000C0009C8325EC30E089819A81AB81BC81892FAA
:1000D0009A2FAB2FBB27F901808384EC90E0298114
:1000E000FC01208380EC90E022E0FC01208382EC84
:1000F00090E026E0FC01208381EC90E028E1FC0107
:10010000208300000F900F900F900F90DF91CF9100
:100110000895CF93DF931F92CDB7DEB78983000098
:1001200080EC90E0FC018081882F90E0807299271C
:10013000892BB1F386EC90E02981FC01208300003B
:100140000F90DF91CF910895CF93DF93CDB7DEB7B6
:10015000000080EC90E0FC0180818823D4F786ECDD
:1001600090E0FC018081DF91CF910895F894FFCF5A
:00000001FF
